:020000040800F2
:100000001008002099020008A31E0008071E00081F
:10001000A11E0008D9050008C52300080000000043
:10002000000000000000000000000000A71E000803
:10003000DB05000800000000A51E0008A91E00083E
:10004000B3020008B3020008B3020008B3020008BC
:10005000B3020008B3020008B3020008B3020008AC
:10006000B3020008B3020008B3020008B30200089C
:10007000B3020008B3020008B3020008B30200088C
:10008000B3020008B3020008B3020008B30200087C
:10009000B3020008B3020008B3020008B30200086C
:1000A000B3020008B3020008B3020008B30200085C
:1000B000B3020008B3020008B3020008B30200084C
:1000C000B3020008B3020008B3020008B30200083C
:1000D000B3020008B9230008B3020008B302000805
:1000E000B3020008B3020008B3020008B30200081C
:1000F000B3020008B3020008B3020008B30200080C
:10010000B3020008B3020008B3020008B3020008FB
:10011000B3020008B3020008B3020008B3020008EB
:10012000B3020008B3020008B3020008B3020008DB
:10013000B3020008B3020008B3020008B3020008CB
:10014000B3020008B3020008B3020008B3020008BB
:10015000B3020008B3020008B3020008B3020008AB
:10016000B3020008B3020008B3020008B30200089B
:10017000B3020008B3020008B30200080000000048
:10018000B3020008B3020008B3020008B30200087B
:10019000B3020008B3020008B3020008B30200086B
:1001A000B3020008B3020008B3020008B30200085B
:1001B000B3020008B3020008B3020008B30200084B
:1001C000B3020008B3020008B3020008B30200083B
:1001D000B3020008B3020008B3020008B30200082B
:1001E000B3020008B3020008B3020008B30200081B
:1001F000B3020008B302000800F002F800F03CF877
:100200000AA090E8000C82448344AAF10107DA4571
:1002100001D100F031F8AFF2090EBAE80F0013F087
:10022000010F18BFFB1A43F00103184750230000C9
:1002300070230000103A24BF78C878C1FAD852075A
:1002400024BF30C830C144BF04680C607047000050
:100250000023002400250026103A28BF78C1FBD8CF
:10026000520728BF30C148BF0B6070471FB502F06E
:1002700072F91FBD10B510BD00F0F1F81146FFF77F
:10028000F5FF02F045F900F00FF903B4FFF7F2FFB4
:1002900003BC00F017F900000948804709480047EF
:1002A000FEE7FEE7FEE7FEE7FEE7FEE7FEE7FEE726
:1002B000FEE7FEE704480549054A064B7047000083
:1002C000691F0008F9010008100200201008002032
:1002D000100400201004002053EA020C00F0698092
:1002E0002DE9F04B4FF00006002B1FBFB3FA83F54A
:1002F00003FA05F424FA05F65E4012BF1643B2FA7B
:1003000082F502FA05F4C5F120051EBF22FA05FCAC
:1003100044EA0C04203556EA044C4FEA144418BF52
:10032000641C4FF000084FF00009904271EB030C81
:1003300039D3002919BFB1FA81F701FA07F6B0FAEB
:1003400080F700FA07F6C7F120071EBF20FA07FC66
:1003500046EA0C062037B6FBF4FCA7EB0507103F76
:1003600007F01F0BCBF120060CFA0BFB2CFA06F65C
:1003700044BFB3460026202FA4BF5E464FF0000BBB
:100380005BEA060C08BF4FF0010B19EB0B09ABFB46
:10039000027C48EB0608C01B06FB02CC0BFB03CC1F
:1003A00071EB0C01C1E70B46024641464846BDE8E9
:1003B000F08B13B54FF000004FF00001AFF3008059
:1003C000BDE81C4070474FF000020429C0F01280C5
:1003D00010F0030C00F01B80CCF1040CBCF1020FF8
:1003E00018BF00F8012BA8BF20F8022BA1EB0C01CD
:1003F00000F00DB85FEAC17C24BF00F8012B00F8C3
:10040000012B48BF00F8012B70474FF0000200B5E8
:10041000134694469646203922BFA0E80C50A0E827
:100420000C50B1F12001BFF4F7AF090728BFA0E8D5
:100430000C5048BF0CC05DF804EB890028BF40F8A1
:10044000042B08BF704748BF20F8022B11F0804FE3
:1004500018BF00F8012B704770477047704775460A
:1004600000F02CF8AE4605006946534620F0070020
:10047000854618B020B5FFF71DFFBDE820404FF0BE
:1004800000064FF000074FF000084FF0000B21F07E
:100490000701AC46ACE8C009ACE8C009ACE8C0094B
:1004A000ACE8C0098D46704710B50446AFF3008034
:1004B0002046BDE81040FFF7E8BE00000048704746
:1004C000B001002001491820ABBEFEE72600020063
:1004D000704700000E4900B587B00A6842F4007208
:1004E0000A60096803230B4A01F400710591012198
:1004F00052F82020CDE90021CDE902130549083149
:1005000051F82000694600F0F5FA07B000BD000080
:1005100030380240140000200549054A083231F8FD
:10052000201052F8200089B2012200F0D4BB000054
:10053000140000200349044A31F8101052F820003A
:1005400000F0C4BB782500081000002030B5044638
:100550001D4887B0026842F00102026000684FF057
:1005600002021A4D1A4B00F0010005904FF00000F6
:10057000E9B1012919D135F81410164DCDE902025F
:10058000CDE9001553F82400694600F0B3FA0F4D89
:1005900000220F21AD1C15F8140040B200F000FC41
:1005A00015F8140040B200F0EDFB07B030BD35F88F
:1005B0001410CDE90010CDE9020253F82400694679
:1005C00000F098FAF1E70000303802407825000882
:1005D0001000002000001110FEE7704772B6FEE721
:1005E0004FF0000229B101291FD0022920D04FF479
:1005F00040720B2800D9001D0F490B6823F440738B
:100600000B600B6813430B600A68022303EBC00303
:1006100022F0F8020A60086818430860086840F48D
:1006200080300860BFF34F8F70474FF48072E0E76F
:100630004FF40072DDE70000103C02400F4A03292E
:10064000136823F4407313600FD00229116811D08E
:1006500041F00401116011684FF4803343EA002037
:1006600001431160BFF34F8F7047116848F20403D4
:100670001943EFE741F40041ECE70000103C024071
:10068000074A136823F440731360136813601368F8
:1006900043F0010313600170BFF34F8F70470000F8
:1006A000103C02400A4910B50C6824F440740C60F8
:1006B0000C6844F440740C600C6844F001040C6055
:1006C0000260BFF36F8F4360BFF34F8F10BD000018
:1006D000103C0240084A136823F440731360136807
:1006E00043F480731360136843F0010313600180C7
:1006F000BFF34F8F70470000103C0240084A136858
:1007000023F440731360136843F400731360136899
:1007100043F0010313600160BFF34F8F7047000087
:10072000103C0240134914480A68920703D58269B5
:1007300042F0200282610A68D20603D5826942F043
:10074000100282610A68920603D5826942F00802AB
:1007500082610A68520603D5826942F0040282610E
:100760000A68120603D5826942F002028261F22011
:10077000086070470C3C0240CC000020124970B564
:1007800005460020886100F0ABFA104C064609E0EF
:10079000681C07D025B100F0A3FA801BA84201D93C
:1007A000032070BD2068C003F2D4206810F0F20F5F
:1007B00003D0FFF7B7FF012070BD2068C00701D04C
:1007C00001202060002070BDCC0000200C3C0240C5
:1007D000F0B50126044600201E2301E05B1E05D370
:1007E00003F01F0706FA07F50D42F7D072B1082A89
:1007F0000AD0102A05D0182A01D1072B06D30120D0
:10080000F0BD082BFBD201E0102BF8D22368596110
:1008100021688B6823F0180313438B60F0BD000040
:1008200010B5040010D0607F20B90020207720464A
:1008300000F032F821790220607739B1D4E9021250
:100840002046FFF7C5FF48B1012010BD21681148BF
:1008500048612068816821F0180181606079A0B149
:10086000216820690861012220686369816821F09C
:100870006001194381602068A369816821F08001CB
:10088000194381606277002010BD21684FF0FF306E
:10089000E8E70000B71DC10408B5006806498842B2
:1008A00008D10648016841F480510160006800F4F5
:1008B0008050009008BD00000030024030380240F7
:1008C0002DE9F041876D044600F00AFA064694F8D7
:1008D00035000025022806D080206065012084F8BC
:1008E0003450BDE8F0812068016821F016010160F4
:1008F0002068416921F080014161206C08B9A06C39
:1009000020B12068016821F00801016020680168B9
:1009100021F0010101600CE000F0E2F9801B0528E4
:1009200007D920216165032084F8345084F835000C
:10093000D7E720680068C007EED194F85C203F201C
:1009400001219040B86084F8345084F835100020BC
:10095000C7E790F83510022903D0802141650120B6
:100960007047052180F835100068016821F0010109
:10097000016000207047000070B5044600F0B0F937
:100980000546601C02D004480078044400F0A8F931
:10099000401BA042FAD370BD000000202DE9F047B3
:1009A000044620480F46017D012909D001214CF25F
:1009B0005039804601754846FFF7E0FE18B12CE03B
:1009C0000220BDE8F0874FF0FF3139602168164DF5
:1009D000012901D0A6681BE0207C6168FFF72EFE8C
:1009E0004846FFF7CBFE296848F20402914329608C
:1009F00013E0217C3046FFF7F3FD4846FFF7BEFECB
:100A0000296821F0FA01296008B13E6005E0761CF2
:100A1000D4E902211144B142EBD8002288F8142015
:100A2000CFE70000CC000020103C024003480168E2
:100A300041F000410160002070470000103C02407E
:100A40002DE9F0471D4D074614461E468946287D70
:100A5000012808D001204CF2503828754046FFF795
:100A60008DFE18B126E00220BDE8F08737B1012FD6
:100A700009D0022F0CD0032F14D10EE04846E1B26A
:100A8000FFF7FEFD0EE0A1B24846FFF723FE09E0A6
:100A900021464846FFF732FE04E0224633464846E8
:100AA000FFF700FE4046FFF769FE05490A6822F09D
:100AB00001020A6000212975D6E70000CC00002061
:100AC000103C02400849002010B50A68002A09DAE3
:100AD000054A064B0C3A064C13601460096800295D
:100AE00000DA012010BD0000103C024023016745E0
:100AF000AB89EFCD2DE9F84F00224FF001094FF0FF
:100B0000030A4FF00F0E00BF0B6809FA02F42340EE
:100B1000A34270D14D68012D05D0022D03D0112DB7
:100B200001D0122D11D185685700CE680AFA07FC52
:100B300025EA0C05BE402E43866045680E79A54324
:100B4000C6F3001696402E434660C56856008F686F
:100B50000AFA06F4A543B7402F43C7604D68022D3B
:100B600001D0122D12D1D5080F694FEA427C00EB5B
:100B70008505AB462D6A4FEADC6C0EFA0CF807FAD5
:100B80000CF725EA08052F43CBF820700D7907688C
:100B900005F00305A743B5403D4305604C68E400FC
:100BA00074D53D4C256845F480452560246822F0C5
:100BB0000307960704F480440094384C360F27440A
:100BC000D7F80848DFF8D8C00EFA06F5604524EAE1
:100BD000050401D100252EE0324DA84201D10125A6
:100BE00029E0314DA84201D1022524E02F4DA84231
:100BF00002D103251FE049E02D4DA84201D1042573
:100C000019E02C4DA84201D1052514E02A4DA84237
:100C100001D106250FE0294DA84201D107250AE0A0
:100C2000274DA84201D1082505E0264DA84201D153
:100C3000092500E00A25B540234E2543C7F808588A
:100C40004D683468ED0324EA030400D51C431E4DAF
:100C500034602D1D4E682C68B60324EA030400D5C9
:100C60001C43194E2C6008364D683468ED0224EAA6
:100C7000030400D51C43144D34600C354E682C68B9
:100C8000B60224EA030400D51C432C60521C102A2F
:100C9000FFF43AAFBDE8F88F44380240003001401D
:100CA000000002400004024000080240000C024024
:100CB000001002400014024000180240001C0240D4
:100CC0000020024000240240003C0140006908402E
:100CD00000D0012070470AB1816170470904FBE729
:100CE00001488068704700000000002002488168C9
:100CF000027811448160704700000020032010B585
:100D000000F06EF80F2000F005F800F023F8002046
:100D100010BD000070B50D4D04464FF47A700C4ABA
:100D200029781268B0FBF1F0B2FBF0F000F0F4FDAE
:100D300048B9102C07D200222146501E00F030F88E
:100D400000206C6070BD012070BD0000000000201C
:100D50000C0000200A4808B5016841F0805101608C
:100D6000006800F0805000900548001D016841F4C3
:100D700080410160006800F48040009008BD0000E0
:100D800040380240002809DB410900F01F028900B9
:100D9000012001F1E0219040C1F8000170470000FE
:100DA0000E4BF0B41B680D46C3F30223C3F10706D4
:100DB000042E00D90426191D072901D2002300E0C2
:100DC000DB1E012404FA06F19C40491E2940641EE2
:100DD000994014402143F0BC01F0F5BA0CED00E05D
:100DE000064900F0070210B54FF6FF040868044BEF
:100DF000204040EA02201843086010BD0CED00E0DE
:100E00000000FA051848F8B5016841F0805101600A
:100E10000068164C00F080500090206840F480304C
:100E20002060FFF75DFF4FF47A76054605E000BFCE
:100E3000FFF756FF401BB0420FD86068C003F7D5DC
:100E4000206840F400302060FFF74AFF054606E0C6
:100E5000FFF746FF401BB04201D90320F8BD606890
:100E60008003F5D50020F8BD4038024000700040F6
:100E70002DE9F84F04460078DFF824944FF000067F
:100E80003746C0070ED0D9F8001021F40001C9F888
:100E90000010D9F80010626B1143C9F80010606BA4
:100EA00000B90126FE4D2068843500030ED5E16BA4
:100EB000286820F4401008432860E06BB0F5801FDC
:100EC00001D010B102E0012600E0012720684FF4B4
:100ED000800BC0020CD5216C286820F44000084328
:100EE0002860206C584501D1012601E000B9012796
:100EF0002068C10100D50126800666D5E848383053
:100F0000016841F0805101600068DFF898A300F0AB
:100F100080500090DAF8001041F48071CAF8001097
:100F2000FFF7DEFE804605E0FFF7DAFEA0EB0800E3
:100F300064287DD8DAF80000C005F5D5DFF86083B5
:100F400008F16808D8F8000010F440702AD0218E0B
:100F500001F44071814225D0D8F80010D8F8002063
:100F600021F4407142F48032C8F80020D8F8002003
:100F700022F48032C8F80020C8F80010D8F8000029
:100F8000C0070FD0FFF7ACFE824607E0FFF7A8FED0
:100F9000A0EB0A0141F288308142CAD8D8F800009B
:100FA0008007F3D5206BC0F3012103297ED0D9F847
:100FB000001021F4F811C9F80010228ED8F80010A2
:100FC000C2F30B021143C8F800102078C00607D501
:100FD000286820F0807028602868A16B084328608A
:100FE0002188AF488830490405D5626E016821F434
:100FF0004031114301602188090405D5A26E0168C2
:1010000021F44021114301602168C90305D5E26E36
:10101000016821F44011114301602168890305D55D
:10102000226F016821F4400111430160217800E042
:1010300034E1490605D5626C016821F003011143D2
:1010400001602178090605D5A26C016821F00C0128
:10105000114301602188C90505D5E26C016821F0C2
:101060003001114301602188890505D5226D016891
:1010700021F0C001114301602188490505D5626D49
:10108000016821F44071114301602188090505D5EB
:10109000A26D016821F44061114301602188C904F7
:1010A00007D5E26D016821F4405100E068E011438A
:1010B00001602188890405D5226E016821F4404130
:1010C000114301602168490205D5A26F016821F032
:1010D00080611143016021684FF0006A890209D5DF
:1010E000E26F016821F0006111430160E16F514539
:1010F00000D1012721680A0700D50127490305D53A
:10110000626F016821F0407111430160216809029A
:1011100006D5D4F88020016821F080511143016088
:101120002168490106D5D4F88420016821F00051D6
:10113000114301602068000106D5D4F888102868A2
:1011400020F00070084328602068C00006D5D4F85D
:101150008C10286820F0806008432860DFF84891F0
:10116000012E02D0206880017ED5D9F800004E46BD
:1011700020F08060C9F80000FFF7B2FD80460FE064
:101180004A4AD9F80030104023F4F8120243C9F853
:10119000002012E7FFF7A4FDA0EB080064287DD82B
:1011A00030680001F6D421783D487C30C90712D060
:1011B000616B81B9237A62680168D0F800C092013E
:1011C000C1F3014142EA0142CCF3036142EA016109
:1011D00041EA0371016021680A0303D5E26BB2F5AD
:1011E000801F04D0C9021AD5216C594517D16368F4
:1011F000016894F80CC002689B01C1F3014143EA05
:101200000141C2F3027241EA0C6141EA02710160DC
:101210002968626A21F01F01521E1143296021686A
:10122000C90110D5238A62680168D0F800C0920114
:10123000C1F3036142EA034242EA0162CCF3027164
:1012400042EA01710160216889010CD56168228A36
:10125000237B94F808C0890141EA024141EA036115
:1012600041EA0C71016000E011E03168B04641F0E4
:1012700080613160FFF734FD064604E0FFF730FD82
:10128000801B64280AD8D8F800000001F6D5E7B31F
:10129000D9F800004E4620F0805009E07BE00000C5
:1012A000083802400070004000380240FFFCFF0F89
:1012B000C9F80000FFF714FD074604E0FFF710FD32
:1012C000C01B642867D83068C0438000F6D5216809
:1012D00035480A0301D5E26B1AB1C9021DD5216C4C
:1012E000D9B963690168277E02689B01C1F3014196
:1012F00043EA0143C2F3027143EA076242EA017121
:10130000016029686FF0FF0300E04BE0A26A21F45E
:10131000F85103EB0222114329602168890212D59A
:10132000E16F51450FD1238C626901680768920112
:10133000C1F3036142EA034242EA0162C7F3027168
:1013400042EA017101602178090716D561690268D6
:10135000D0F800C08B01277FC2F30362CCF30141B8
:1013600043EA014141EA026141EA077101602868EC
:10137000E16A20F4403008432860306840F0805033
:101380003060FFF7ADFC044608E000BFFFF7A8FCA3
:10139000001B642802D90320BDE8F88F3068C043E1
:1013A0008000F3D40020F7E7883802402DE9F047A9
:1013B00005000F4663D0444E306800F00F00B8427D
:1013C00009D2306820F00F0038433060306800F0F8
:1013D0000F00B84253D128683C4C810712D5400712
:1013E00003D5206840F4E05020602878000703D53A
:1013F000206840F460402060A968206820F0F00078
:10140000084320602878C0072AD030496868083926
:10141000012810D00968022810D0890700292EDA87
:10142000216821F0030101432160FFF759FC804648
:1014300041F288390DE009688903EFE78901EDE79A
:10144000FFF74EFCA0EB0801494502D90320BDE897
:10145000F0876868216801F00C01B1EB800FEFD1D3
:10146000306800F00F00B8420BD9306820F00F0050
:1014700038433060306800F00F00B84201D00120DE
:10148000E5E72878400705D5E968206820F4E050B2
:10149000084320602878000706D52869216821F4D0
:1014A000604141EAC000206000F038F82168084A35
:1014B000C1F30311515CC840064908600648006842
:1014C000FFF728FC0020C2E7003C02400838024039
:1014D000602500080C000020040000200449054895
:1014E00009680068044AC1F38221515CC840704712
:1014F000083802400C000020702500080449054807
:1015000009680068044AC1F34231515CC840704721
:10151000083802400C00002070250008154910B55D
:101520001548096811F00C0213D01449042A0FD091
:10153000082A0ED10F4C241F2268236802F03F02B4
:101540005B0207D52068C0F38810A0FB010106E00C
:10155000084610BD2168C1F38811A1FB00010023DA
:10156000FEF7BAFE2168C1F30141491C4900B0FBF6
:10157000F1F010BD083802400024F40040787D01ED
:101580002DE9F84F04004FF000076ED02078DFF807
:101590007CA3AAF10408C007A8F104054CD0DAF82E
:1015A00000105046C1F38101012908D00068C0F342
:1015B000810002280AD1D8F80000400206D5286828
:1015C000800339D560680028DFD035E06068B0F569
:1015D000803F0BD010B1B0F5A02F11D0286820F4B7
:1015E00080302860286820F4802002E0286840F4D9
:1015F00080302860606890B1FFF772FB06460AE011
:10160000286840F480202860F0E700BFFFF768FBFF
:10161000801B642872D828688003F7D50CE0FFF798
:101620005FFB064605E000BFFFF75AFB801B6428FE
:10163000F0D828688003F7D42078800742D5DAF8FC
:101640000010504611F00C0F08D00068C0F3810064
:1016500002280BD1D8F80000400207D42868800780
:1016600018D5E068012800D114E04AE1E0680028BC
:10167000286817D040F001002860FFF731FB0646CC
:1016800005E000BFFFF72CFB801B0228C2D82868AA
:101690008007F7D52069296821F0F80141EAC000E8
:1016A00028600FE020F001002860FFF719FB0646D4
:1016B00005E000BFFFF714FB801B02281ED8286836
:1016C0008007F7D42078000729D5904861696C30ED
:1016D00000298146016812D041F001010160FFF745
:1016E000FFFA064605E000BFFFF7FAFA801B022862
:1016F00004D8D9F800008007F6D510E089E021F081
:1017000001010160FFF7ECFA064604E0FFF7E8FA92
:10171000801B02287DD8D9F800008007F6D42078F5
:1017200040076BD5DFF8E49109F13809D9F80000DA
:10173000C0000BD4D9F8001041F08051C9F8001056
:10174000D9F80000012700F080500090704801682F
:10175000C90512D40168834641F480710160FFF726
:10176000BFFA064605E000BFFFF7BAFA801B6428FF
:101770004FD8DBF80000C005F6D5644EA068683687
:1017800001280AD008B1052811D0306820F00100E6
:101790003060306820F0040002E0306840F0010062
:1017A0003060A068A0B1FFF79BFA83460CE0306878
:1017B00040F004003060F0E7FFF792FAA0EB0B0175
:1017C00041F28830814268D830688007F4D50EE055
:1017D000FFF786FA834607E0FFF782FAA0EB0B01DA
:1017E00041F28830814258D830688007F4D42FB154
:1017F000D9F8001021F08051C9F80010A069E0B3B9
:10180000DAF80010C1F3810102294DD002282868BE
:1018100000E042E020F08070286003D0FFF760FA1B
:1018200004463DE0FFF75CFA064604E0FFF758FA8D
:10183000801B022831D828688001F7D4D4E9092117
:10184000DFF8D0C0D4E9070694F830304F0894F898
:101850002C1030430CEB074444EA8212104340EA58
:10186000016040EA0370C8F80000286840F080700A
:101870002860FFF735FA044605E044E0FFF730FA48
:10188000001B022809D828688001F7D53BE000BF7B
:10189000FFF726FA001B022802D90320BDE8F88FC3
:1018A00028688001F4D42EE00128D8F8000028D060
:1018B000E16900F480028A4223D1216A00F03F02EC
:1018C0008A421ED1626A47F6C0710140B1EB821FA5
:1018D00017D1A16A4FF0FF3200F4403302EB5101FF
:1018E000B3EB014F0DD194F82C1000F07062B2EB05
:1018F000016F06D194F8301000F0E040B0EB017FAA
:1019000001D00120CAE70020C8E7000008380240E3
:10191000007000400000FFFF401EB0F1807F10B556
:1019200001D3012010BD4FF0E02460610F2160174A
:1019300000F049FD0020A0610721216110BD704722
:10194000704770472DE9F04102680446002540F6D3
:101950000F06D06911689368304205D1860678D5A4
:101960008E0676D5616EF2E0814F03F001060F40DE
:1019700037437ED0C70709D0CF0507D501271762A7
:10198000D4F8802042F00102C4F8802082070AD5F2
:10199000DA0708D0276802223A62D4F8802042F0A1
:1019A0000402C4F8802042070AD5DA0708D0236869
:1019B00004221A62D4F8802042F00202C4F8802087
:1019C00002070CD501F02002324308D02368082218
:1019D0001A62D4F8802042F00802C4F88020020580
:1019E0000BD54A0109D523684FF400621A62D4F876
:1019F000802042F02002C4F88020D4F88020002A01
:101A00002FD0800605D5880603D5616E09B1204622
:101A100088472168D4F880008968490602D410F00C
:101A2000280F20D0204600F043FB2068816849063B
:101A300014D5816821F040018160206F70B14D495B
:101A40000165206FFEF785FF00280AD0206F016D29
:101A500001E00EE02046BDE8F04108472046FFF7D0
:101A600070FFBDE8F0812046FFF76BFFC4F880509F
:101A7000F7E7276E2026012F59D1C70657D5CF0685
:101A800055D5102010622068816849062ED5226F36
:101A9000116849680904090CE3D0B4F858308B4246
:101AA000DFD9A4F85A10D169B1F5807F17D0016849
:101AB00021F4807101602068816821F0010181605A
:101AC0002068816821F040018160E6672566206812
:101AD000016821F010010160206FFEF7F1FEB4F8FB
:101AE0005800B4F85A10401A81B21CE0B4F85810EB
:101AF000B4F85A20B4F85A30891A89B2002BB0D001
:101B00000029AED0026822F49072026020688268D8
:101B100022F001028260E667256665662068026839
:101B200022F0100202602046FFF709FF99E7C70282
:101B300008D55B0206D54FF4801010622046FFF7EF
:101B4000FFFE8EE7030605D50B0603D5A16E00291F
:101B500080D186E7400684D5480682D511682046A4
:101B600021F040011160A667A56600F04BF978E707
:101B7000200100049D20000810B5040002D0A06FD1
:101B800010B107E0012010BD002084F87400204649
:101B900000F026F82420A0672068016821F00101E8
:101BA0000160204600F09CFA0128ECD0606A10B178
:101BB000204600F0E1F92068416821F4904141603D
:101BC0002068816821F02A0181602068016841F065
:101BD000010101602046BDE8104000F031BA00006C
:101BE00010B586B0044614216846FEF70EFC16496F
:101BF0002068884226D11548016841F01001016033
:101C0000006800F01000059010481438016841F099
:101C10000101016000680221002200F0010005902E
:101C2000032307244FF4C0608DE81F00084869466D
:101C3000FEF760FF002225201146FFF7B1F82520AE
:101C4000FFF7A0F806B010BD001001404438024074
:101C5000000002402DE9F84F0446C06F9A46164630
:101C60000D46202870D105B3FEB194F87400012808
:101C70006AD0012284F8742022214FF00008C4F8B1
:101C80008080E167C4F860805834FFF729F8814606
:101C900054F8500C26804FF480536680FF21583C46
:101CA000984208D122691AB11EE00120BDE8F88FE0
:101CB00040F2FF1118E04FF07F0298B1B0F1805F61
:101CC00015D0A4F85C8000BFB4F85C70984201D1D4
:101CD000206998B12E460025404607F0FF0884F899
:101CE000740024E0266936B9A4F85C10ECE7216999
:101CF00009B13F21F8E7A4F85C20E5E70026EBE70F
:101D000000224B4620212046CDF800A000F002FB27
:101D100008B10320CAE72068406A86B100EA0800DB
:101D200006F8010BB4F85A00401EA4F85A00B4F8A3
:101D30005A000028E4D12020E0670020B6E73840B0
:101D400025F8020BEEE7FFE70220AFE72DE9F843A5
:101D50000446806F1F4616460D46202850D1CDB14F
:101D6000C6B194F8740001284AD0012084F87400A8
:101D700021224FF00008C4F88080A267FEF7B0FF70
:101D80008146A068A4F85060A4F85260B0F5805F66
:101D900003D004E00120BDE8F883206928B12E4675
:101DA0005FF0000584F8748010E00026FAE78021D7
:101DB000204600F0AFFAB8B9C6B116F8010B216899
:101DC0008862B4F85200401EA4F85200B4F85200E1
:101DD0004B464FF0000200970028E8D14FF0400139
:101DE000204600F097FA38B10320D4E735F8020B0B
:101DF0002168C0F30800E3E72020A0670020CAE7BD
:101E00000220C8E77047FEE70A480021084B01227C
:101E100010B5036001714171416102628161FEF799
:101E2000FFFC002803D0BDE81040FEF7D7BB10BD73
:101E30000030024024000020094808B5016841F044
:101E400001010160016801F001010091016841F0A8
:101E500080010160006800F08000009008BD000073
:101E6000303802400D48002110B50B4C0C224FF4C5
:101E7000E1330460C0E90131C160C0E9041281614D
:101E8000C16101624162FFF777FE002803D0BDE81F
:101E90001040FEF7A3BB10BD001001404800002019
:101EA000FEE7FEE770477047FEF720BF30B5B7B0DA
:101EB000342124A8FEF7A9FA142131A8FEF7A5FAC7
:101EC00090216846FEF7A1FA2548016841F080514B
:101ED0000160006800F0805036902248016841F4AB
:101EE0004041016000680224192300F4404036900C
:101EF00001202C934FF4D87582050104CDE92A42C4
:101F0000CDE92D542F94CDE9240124A83094FFF776
:101F100037FB08B172B6FEE7FEF774FF08B172B680
:101F2000FEE74FF480524FF4A0510025CDE9341262
:101F300031AA0F20072182E8310031A8FFF736FAD5
:101F400008B172B6FEE74020119500906846FEF792
:101F50008FFF002801D072B6FEE737B030BD000019
:101F600040380240007000400248016841F47001AE
:101F70000160704788ED00E090F82410C90706D092
:101F80000168836A4A6822F400321A434A6090F872
:101F90002410890706D50168C36A4A6822F4803292
:101FA0001A434A6090F82410490706D50168036B6C
:101FB0004A6822F480221A434A6090F824100907E4
:101FC00006D50168436B4A6822F400421A434A600E
:101FD00090F82410C90606D50168836B8A6822F43C
:101FE00080521A438A6090F82410890606D5016849
:101FF000C36B8A6822F400521A438A6090F8241056
:10200000490611D50168036C4A6822F480121A430C
:102010004A60016CB1F5801F06D10168436C4A68C3
:1020200022F4C0021A434A6090F82410090606D52B
:102030000168826C486820F40020104348607047B3
:10204000F8B500260446C0F88060FEF749FE054654
:1020500020686FF07E470068000708D500222B46F5
:102060004FF400112046009700F054F960B9206841
:10207000006840070AD500222B464FF48001204615
:10208000009700F047F908B10320F8BD2020A067B1
:10209000E0672666002084F87460F8BD10B5806B98
:1020A0000021A0F85A10A0F85210FFF74AFC10BD0A
:1020B00001680A6822F490720A6001688A6822F056
:1020C00001028A60016E012904D101680A6822F0C8
:1020D00010020A6000212022C26701664166704733
:1020E0002DE9F04104460368C2698168D4E90450CF
:1020F000DFF8F4C17D4E29431F68002510437C4A58
:10210000014307EA0C070F431F604FF400402168AA
:10211000E7684B6823F440533B434B602768A3694F
:10212000216AD7F808C019432CF430630B43BB6015
:102130002168B1420AD1116811F0030152D001297E
:102140007CD0022971D003296ED184E0694B994279
:102150000AD1116811F00C0167D0042965D0082953
:1021600075D00C2960D176E0634B99420AD1116891
:1021700011F0300159D010296BD0202967D03029B7
:1021800052D168E05D4B99420AD1116811F0C0014B
:102190004BD040295DD0802959D0C02944D15AE084
:1021A000574B99420DD1116811F440713DD0B1F5F2
:1021B000807F4ED0B1F5007F49D0B1F5407F33D15B
:1021C00049E0504B99420FD1116811F4406109D098
:1021D000B1F5806F3DD0B1F5006F38D0B1F5406FEB
:1021E00022D138E0012120E0474B99420DD11168FE
:1021F00011F4405119D0B1F5805F2AD0B1F5005FDC
:1022000025D0B1F5405F0FD125E0404B99420BD16D
:10221000116811F4404108D0B1F5804F19D08142C6
:1022200015D0B1F5404F16D01021E369384A4FF66A
:10223000EF7683422FD109294BD201E009E006E075
:10224000DFE801F00B0E1147134747471600022144
:10225000EBE70421E9E70821E7E7FFF73FF906E0AC
:10226000FFF74CF903E0104602E0FFF757F988B397
:102270006168400000EB5100B0FBF1F080B2A0F1CA
:102280001001B14225D84FF6F0732168C0F3420225
:102290001840104320E009291BD2DFE801F00508AF
:1022A0000B1A0D1A1A1A1000FFF718F906E0FFF7BB
:1022B00025F903E0104602E0FFF730F950B16168FC
:1022C00000EB5100B0FBF1F080B2A0F11001B1427F
:1022D00001D9012501E02168C86000206066A06680
:1022E0002846BDE8F0810000F369FFEF00100140CF
:1022F000903802400044004000480040004C00403C
:10230000005000400014014000780040007C004074
:102310000024F4002DE9F0479A4617460E4604467D
:10232000089D4FF000094FF0200839E0681C37D0B5
:10233000FEF7D6FCA0EB0A00A84222D80DB3206815
:10234000016849072CD5C069C043000528D423681B
:102350004FF40061196221680B6823F4D0730B609D
:1023600021688B6823F001038B60C4F87880C4F87F
:102370007C80C4F8808000BF032084F87490BDE89E
:10238000F08721680B6823F4D0730B6021688B6899
:1023900023F001038B60C4F87880C4F87C80EBE7FD
:1023A0002068C06936EA000004D00020B842BDD0E1
:1023B0000020E4E70120F9E70148FFF7C3BA000075
:1023C00048000020FEE7090700284FEA116104DBFE
:1023D00000F1E02080F80014704700F00F0000F1D9
:1023E000E02080F8141D704710B586B001200B2244
:1023F0000021CDE90010CDE90202FEF763FB0220C7
:10240000049005A96846FEF7C9FAFEF70FFB4FF0E6
:10241000FF3409480122234606A1FFF797FC6420F8
:10242000FEF7AAFA0448012204A12346FFF78EFC16
:1024300006B010BD32000000480000205700000028
:1024400010B58278D0F80310C01D00F047F84FF0A7
:10245000FF3409480122234606A1FFF777FC6420D8
:10246000FEF78AFA23460448BDE81040012203A182
:10247000FFF76CBC3100000048000020570000004E
:10248000704700000249086880F3088848680047E0
:10249000008000080F4C4FF0FF350E48C821FDF7B3
:1024A00092FF0C4901220C482B46FFF7D3FB227800
:1024B000611C09482B46FFF7CDFB6078562805D0F4
:1024C0005728EAD10348FFF7BBFFE6E70148FFF7CB
:1024D0008BFFE2E7E8000020480000202DE9F041F2
:1024E000002516460F468046FEF7ECFA002408E069
:1024F000002318F8042039191846FEF7A1FA641CC5
:102500000546B442F4D3FEF791FA2846BDE8F081BF
:1025100010B5FEF7F3FBFFF7C9FCFFF78DFCFFF7E3
:1025200073FCFFF79FFC0020FDF7D4FF0021084655
:10253000FEF70CF8FFF7A4FF0020FDF7FBFF0128D2
:1025400003D0FFF79FFF002010BD0020FDF7E4FF40
:10255000FFF7A0FFF7E74FF04070E1EE100A704779
:102560000000000000000000010203040607080943
:102570000000000001020304010006009C25000881
:10258000000000202400000034020008C0250008DC
:1025900024000020EC0700005002000801000000A9
:1025A00010000000000000000024F40000000240C1
:1025B000002000002000000000240240002402400F
:04000005080001F9F5
:00000001FF
