:020000040800F2
:100000001008002099020008531C0008C11B0008BA
:10001000511C0008F505000825210008000000001B
:10002000000000000000000000000000571C000855
:10003000F705000800000000551C0008591C0008C6
:10004000B3020008B3020008B3020008B3020008BC
:10005000B3020008B3020008B3020008B3020008AC
:10006000B3020008B3020008B3020008B30200089C
:10007000B3020008B3020008B3020008B30200088C
:10008000B3020008B3020008B3020008B30200087C
:10009000B3020008B3020008B3020008B30200086C
:1000A000B3020008B3020008B3020008B30200085C
:1000B000B3020008B3020008B3020008B30200084C
:1000C000B3020008B3020008B3020008B30200083C
:1000D000B3020008B3020008B3020008B30200082C
:1000E000B3020008B3020008B3020008B30200081C
:1000F000B3020008B3020008B3020008B30200080C
:10010000B3020008B3020008B3020008B3020008FB
:10011000B3020008B3020008B3020008B3020008EB
:10012000B3020008B3020008B3020008B3020008DB
:10013000B3020008B3020008B3020008B3020008CB
:10014000B3020008B3020008B3020008B3020008BB
:10015000B3020008B3020008B3020008B3020008AB
:10016000B3020008B3020008B3020008B30200089B
:10017000B3020008B3020008B30200080000000048
:10018000B3020008B3020008B3020008B30200087B
:10019000B3020008B3020008B3020008B30200086B
:1001A000B3020008B3020008B3020008B30200085B
:1001B000B3020008B3020008B3020008B30200084B
:1001C000B3020008B3020008B3020008B30200083B
:1001D000B3020008B3020008B3020008B30200082B
:1001E000B3020008B3020008B3020008B30200081B
:1001F000B3020008B302000800F002F800F03CF877
:100200000AA090E8000C82448344AAF10107DA4571
:1002100001D100F031F8AFF2090EBAE80F0013F087
:10022000010F18BFFB1A43F001031847C423000055
:10023000E4230000103A24BF78C878C1FAD85207E6
:1002400024BF30C830C144BF04680C607047000050
:100250000023002400250026103A28BF78C1FBD8CF
:10026000520728BF30C148BF0B6070471FB502F06E
:10027000ABF91FBD10B510BD00F0F1F81146FFF746
:10028000F5FF02F057F900F00FF903B4FFF7F2FFA2
:1002900003BC00F017F900000948804709480047EF
:1002A000FEE7FEE7FEE7FEE7FEE7FEE7FEE7FEE726
:1002B000FEE7FEE704480549054A064B7047000083
:1002C000191D0008F9010008100200201008002084
:1002D000100400201004002053EA020C00F0698092
:1002E0002DE9F04B4FF00006002B1FBFB3FA83F54A
:1002F00003FA05F424FA05F65E4012BF1643B2FA7B
:1003000082F502FA05F4C5F120051EBF22FA05FCAC
:1003100044EA0C04203556EA044C4FEA144418BF52
:10032000641C4FF000084FF00009904271EB030C81
:1003300039D3002919BFB1FA81F701FA07F6B0FAEB
:1003400080F700FA07F6C7F120071EBF20FA07FC66
:1003500046EA0C062037B6FBF4FCA7EB0507103F76
:1003600007F01F0BCBF120060CFA0BFB2CFA06F65C
:1003700044BFB3460026202FA4BF5E464FF0000BBB
:100380005BEA060C08BF4FF0010B19EB0B09ABFB46
:10039000027C48EB0608C01B06FB02CC0BFB03CC1F
:1003A00071EB0C01C1E70B46024641464846BDE8E9
:1003B000F08B13B54FF000004FF00001AFF3008059
:1003C000BDE81C4070474FF000020429C0F01280C5
:1003D00010F0030C00F01B80CCF1040CBCF1020FF8
:1003E00018BF00F8012BA8BF20F8022BA1EB0C01CD
:1003F00000F00DB85FEAC17C24BF00F8012B00F8C3
:10040000012B48BF00F8012B70474FF0000200B5E8
:10041000134694469646203922BFA0E80C50A0E827
:100420000C50B1F12001BFF4F7AF090728BFA0E8D5
:100430000C5048BF0CC05DF804EB890028BF40F8A1
:10044000042B08BF704748BF20F8022B11F0804FE3
:1004500018BF00F8012B704770477047704775460A
:1004600000F02CF8AE4605006946534620F0070020
:10047000854618B020B5FFF71DFFBDE820404FF0BE
:1004800000064FF000074FF000084FF0000B21F07E
:100490000701AC46ACE8C009ACE8C009ACE8C0094B
:1004A000ACE8C0098D46704710B50446AFF3008034
:1004B0002046BDE81040FFF7E8BE00000048704746
:1004C000B001002001491820ABBEFEE72600020063
:1004D000704700000E4900B587B00A6842F4007208
:1004E0000A60096803230B4A01F400710591012198
:1004F00052F82020CDE90021CDE902130549083149
:1005000051F82000694600F0F9FA07B000BD00007C
:1005100030380240140000200549054A083231F8FD
:10052000201052F8200089B2002200F0D8BB000051
:10053000140000200549054A083231F8201052F80D
:10054000200089B2012200F0CABB00001400002084
:100550000349044A31F8101052F8200000F0BABBE9
:10056000EA2500081000002030B504461D4887B079
:10057000026842F00102026000684FF002021A4D68
:100580001A4B00F0010005904FF00000E9B101297D
:1005900019D135F81410164DCDE90202CDE9001538
:1005A00053F82400694600F0A9FA0F4D00220F21EC
:1005B000AD1C15F8140040B200F0F6FB15F814005D
:1005C00040B200F0E3FB07B030BD35F81410CDE9C0
:1005D0000010CDE9020253F82400694600F08EFABB
:1005E000F1E7000030380240EA2500081000002042
:1005F00000001110FEE7704772B6FEE74FF00002F0
:1006000029B101291FD0022920D04FF440720B28B4
:1006100000D9001D0F490B6823F440730B600B6871
:1006200013430B600A68022303EBC00322F0F802B5
:100630000A60086818430860086840F48030086061
:10064000BFF34F8F70474FF48072E0E74FF40072B2
:10065000DDE70000103C02400F4A0329136823F431
:10066000407313600FD00229116811D041F00401CA
:10067000116011684FF4803343EA00200143116098
:10068000BFF34F8F7047116848F204031943EFE737
:1006900041F40041ECE70000103C02401028034800
:1006A000006801D0000C704780B27047183C0240CF
:1006B000074A136823F440731360136813601368C8
:1006C00043F0010313600170BFF34F8F70470000C8
:1006D000103C02400A4910B50C6824F440740C60C8
:1006E0000C6844F440740C600C6844F001040C6025
:1006F0000260BFF36F8F4360BFF34F8F10BD0000E8
:10070000103C0240084A136823F4407313601368D6
:1007100043F480731360136843F001031360018096
:10072000BFF34F8F70470000103C0240084A136827
:1007300023F440731360136843F400731360136869
:1007400043F0010313600160BFF34F8F7047000057
:10075000103C0240134914480A68920703D5826985
:1007600042F0200282610A68D20603D5826942F013
:10077000100282610A68920603D5826942F008027B
:1007800082610A68520603D5826942F004028261DE
:100790000A68120603D5826942F002028261F220E1
:1007A000086070470C3C024094010020124970B56B
:1007B00005460020886100F097FA104C064609E0D3
:1007C000681C07D025B100F08FFA801BA84201D920
:1007D000032070BD2068C003F2D4206810F0F20F2F
:1007E00003D0FFF7B7FF012070BD2068C00701D01C
:1007F00001202060002070BD940100200C3C0240CC
:10080000F0B50126044600201E2301E05B1E05D33F
:1008100003F01F0706FA07F50D42F7D072B1082A58
:100820000AD0102A05D0182A01D1072B06D301209F
:10083000F0BD082BFBD201E0102BF8D223685961E0
:1008400021688B6823F0180313438B60F0BD000010
:1008500010B5040010D0607F20B90020207720461A
:1008600000F032F821790220607739B1D4E9021220
:100870002046FFF7C5FF48B1012010BD216811488F
:1008800048612068816821F0180181606079A0B119
:10089000216820690861012220686369816821F06C
:1008A0006001194381602068A369816821F080019B
:1008B000194381606277002010BD21684FF0FF303E
:1008C000E8E70000B71DC10408B500680649884282
:1008D00008D10648016841F480510160006800F4C5
:1008E0008050009008BD00000030024030380240C7
:1008F00070B5044600F0F8F90546601C02D00448C3
:100900000078044400F0F0F9401BA042FAD370BD17
:10091000000000202DE9F047044620480F46017DE5
:10092000012909D001214CF2503980460175484611
:10093000FFF73CFF18B12CE00220BDE8F0874FF034
:10094000FF3139602168164D012901D0A6681BE0EE
:10095000207C6168FFF780FE4846FFF727FF296883
:1009600048F204029143296013E0217C3046FFF7EE
:1009700045FE4846FFF71AFF296821F0FA01296071
:1009800008B13E6005E0761CD4E902211144B14271
:10099000EBD8002288F81420CFE700009401002053
:1009A000103C024010B5114904463F20104A206017
:1009B00008681040A0604A1CAA201378AA2B03D014
:1009C0001078CC2800D05520E0600A4A0868104012
:1009D0006061086800F00C0020611020FFF75EFEE7
:1009E000A0612020FFF75AFEE06110BD143C0240D8
:1009F0000000FF0FF00000F00348016841F00041E3
:100A00000160002070470000103C0240034801686C
:100A100041F001010160002070470000143C0240D9
:100A200006480068C00707D0044805490C38054A45
:100A3000016002600020704701207047143C0240B2
:100A40003B2A19087F6E5D4C2DE9F0471D4D074686
:100A500014461E468946287D012808D001204CF204
:100A6000503828754046FFF7A1FE18B126E0022055
:100A7000BDE8F08737B1012F09D0022F0CD0032F2A
:100A800014D10EE04846E1B2FFF712FE0EE0A1B22B
:100A90004846FFF737FE09E021464846FFF746FE85
:100AA00004E0224633464846FFF714FE4046FFF76F
:100AB0007DFE05490A6822F001020A6000212975BD
:100AC000D6E7000094010020103C024008490020B5
:100AD00010B50A68002A09DA054A064B0C3A064C9A
:100AE000136014600968002900DA012010BD0000BD
:100AF000103C024023016745AB89EFCD2DE9F84F4B
:100B000000224FF001094FF0030A4FF00F0E00BF13
:100B10000B6809FA02F42340A34270D14D68012DFD
:100B200005D0022D03D0112D01D0122D11D18568D1
:100B30005700CE680AFA07FC25EA0C05BE402E4392
:100B4000866045680E79A543C6F3001696402E438D
:100B50004660C56856008F680AFA06F4A543B74098
:100B60002F43C7604D68022D01D0122D12D1D50838
:100B70000F694FEA427C00EB8505AB462D6A4FEAD0
:100B8000DC6C0EFA0CF807FA0CF725EA08052F437F
:100B9000CBF820700D79076805F00305A743B54031
:100BA0003D4305604C68E40074D53D4C256845F430
:100BB00080452560246822F00307960704F48044EA
:100BC0000094384C360F2744D7F80848DFF8D8C0CF
:100BD0000EFA06F5604524EA050401D100252EE051
:100BE000324DA84201D1012529E0314DA84201D161
:100BF000022524E02F4DA84202D103251FE049E041
:100C00002D4DA84201D1042519E02C4DA84201D157
:100C1000052514E02A4DA84201D106250FE0294DF3
:100C2000A84201D107250AE0274DA84201D1082595
:100C300005E0264DA84201D1092500E00A25B5406E
:100C4000234E2543C7F808584D683468ED0324EA5D
:100C5000030400D51C431E4D34602D1D4E682C68C6
:100C6000B60324EA030400D51C43194E2C60083651
:100C70004D683468ED0224EA030400D51C43144D8A
:100C800034600C354E682C68B60224EA030400D5A3
:100C90001C432C60521C102AFFF43AAFBDE8F88FB9
:100CA000443802400030014000000240000402408D
:100CB00000080240000C02400010024000140240F4
:100CC00000180240001C02400020024000240240A4
:100CD000003C01400069084000D0012070470AB183
:100CE000816170470904FBE7014880687047000094
:100CF000000000200248816802781144816070473A
:100D000000000020032010B500F06EF80F2000F066
:100D100005F800F023F8002010BD000070B50D4D5F
:100D200004464FF47A700C4A29781268B0FBF1F04F
:100D3000B2FBF0F000F0F4FD48B9102C07D200220D
:100D40002146501E00F030F800206C6070BD01207C
:100D500070BD0000000000200C0000200A4808B50B
:100D6000016841F080510160006800F080500090FF
:100D70000548001D016841F480410160006800F4ED
:100D80008040009008BD000040380240002809DB88
:100D9000410900F01F028900012001F1E02190408B
:100DA000C1F80001704700000E4BF0B41B680D46FF
:100DB000C3F30223C3F10706042E00D90426191D2C
:100DC000072901D2002300E0DB1E012404FA06F10A
:100DD0009C40491E2940641E994014402143F0BCA8
:100DE00001F0A1B90CED00E0064900F0070210B5D2
:100DF0004FF6FF040868044B204040EA02201843E5
:100E0000086010BD0CED00E00000FA051848F8B5C8
:100E1000016841F0805101600068164C00F080507C
:100E20000090206840F480302060FFF75DFF4FF4B1
:100E30007A76054605E000BFFFF756FF401BB0423B
:100E40000FD86068C003F7D5206840F400302060F8
:100E5000FFF74AFF054606E0FFF746FF401BB0429A
:100E600001D90320F8BD60688003F5D50020F8BDE6
:100E700040380240007000402DE9F84F04460078E9
:100E8000DFF824944FF000063746C0070ED0D9F89B
:100E9000001021F40001C9F80010D9F80010626BAD
:100EA0001143C9F80010606B00B90126FE4D20689F
:100EB000843500030ED5E16B286820F44010084308
:100EC0002860E06BB0F5801F01D010B102E0012670
:100ED00000E0012720684FF4800BC0020CD5216C84
:100EE000286820F4400008432860206C584501D150
:100EF000012601E000B901272068C10100D50126C3
:100F0000800666D5E8483830016841F080510160BC
:100F10000068DFF898A300F080500090DAF8001025
:100F200041F48071CAF80010FFF7DEFE804605E04C
:100F3000FFF7DAFEA0EB080064287DD8DAF800009D
:100F4000C005F5D5DFF8608308F16808D8F800001F
:100F500010F440702AD0218E01F44071814225D0D6
:100F6000D8F80010D8F8002021F4407142F4803203
:100F7000C8F80020D8F8002022F48032C8F80020F9
:100F8000C8F80010D8F80000C0070FD0FFF7ACFE7B
:100F9000824607E0FFF7A8FEA0EB0A0141F2883085
:100FA0008142CAD8D8F800008007F3D5206BC0F37F
:100FB000012103297ED0D9F8001021F4F811C9F8D5
:100FC0000010228ED8F80010C2F30B021143C8F8AB
:100FD00000102078C00607D5286820F080702860AF
:100FE0002868A16B084328602188AF4888304904ED
:100FF00005D5626E016821F44031114301602188FA
:10100000090405D5A26E016821F440211143016055
:101010002168C90305D5E26E016821F4401111432E
:1010200001602168890305D5226F016821F4400120
:1010300011430160217800E034E1490605D5626C76
:10104000016821F00301114301602178090605D5EB
:10105000A26C016821F00C01114301602188C905CF
:1010600005D5E26C016821F030011143016021884F
:10107000890505D5226D016821F0C0011143016089
:101080002188490505D5626D016821F4407111433D
:1010900001602188090505D5A26D016821F4406130
:1010A000114301602188C90407D5E26D016821F46C
:1010B000405100E068E0114301602188890405D5B2
:1010C000226E016821F44041114301602168490208
:1010D00005D5A26F016821F080611143016021688C
:1010E0004FF0006A890209D5E26F016821F00061C2
:1010F00011430160E16F514500D1012721680A07C2
:1011000000D50127490305D5626F016821F04071C0
:10111000114301602168090206D5D4F880200168D6
:1011200021F08051114301602168490106D5D4F8AE
:101130008420016821F00051114301602068000102
:1011400006D5D4F88810286820F00070084328607D
:101150002068C00006D5D4F88C10286820F0806084
:1011600008432860DFF84891012E02D020688001F2
:101170007ED5D9F800004E4620F08060C9F8000006
:10118000FFF7B2FD80460FE04A4AD9F80030104020
:1011900023F4F8120243C9F8002012E7FFF7A4FD78
:1011A000A0EB080064287DD830680001F6D42178CF
:1011B0003D487C30C90712D0616B81B9237A6268DF
:1011C0000168D0F800C09201C1F3014142EA014236
:1011D000CCF3036142EA016141EA037101602168D5
:1011E0000A0303D5E26BB2F5801F04D0C9021AD5F9
:1011F000216C594517D16368016894F80CC00268E6
:101200009B01C1F3014143EA0141C2F3027241EA89
:101210000C6141EA027101602968626A21F01F01D4
:10122000521E114329602168C90110D5238A6268C2
:101230000168D0F800C09201C1F3036142EA0342A1
:1012400042EA0162CCF3027142EA01710160216855
:1012500089010CD56168228A237B94F808C0890132
:1012600041EA024141EA036141EA0C71016000E098
:1012700011E03168B04641F080613160FFF734FD24
:10128000064604E0FFF730FD801B64280AD8D8F832
:1012900000000001F6D5E7B3D9F800004E4620F073
:1012A000805009E07BE000000838024000700040F8
:1012B00000380240FFFCFF0FC9F80000FFF714FDE3
:1012C000074604E0FFF710FDC01B642867D83068AC
:1012D000C0438000F6D5216835480A0301D5E26B8A
:1012E0001AB1C9021DD5216CD9B963690168277E7D
:1012F00002689B01C1F3014143EA0143C2F3027159
:1013000043EA076242EA0171016029686FF0FF0356
:1013100000E04BE0A26A21F4F85103EB02221143F2
:1013200029602168890212D5E16F51450FD1238CC4
:101330006269016807689201C1F3036142EA0342EE
:1013400042EA0162C7F3027142EA01710160217849
:10135000090716D561690268D0F800C08B01277FA4
:10136000C2F30362CCF3014143EA014141EA026165
:1013700041EA077101602868E16A20F440300843BF
:101380002860306840F080503060FFF7ADFC0446C4
:1013900008E000BFFFF7A8FC001B642802D9032067
:1013A000BDE8F88F3068C0438000F3D40020F7E731
:1013B000883802402DE9F04705000F4663D0444EBF
:1013C000306800F00F00B84209D2306820F00F00FA
:1013D00038433060306800F00F00B84253D12868BD
:1013E0003C4C810712D5400703D5206840F4E050FB
:1013F00020602878000703D5206840F46040206012
:10140000A968206820F0F000084320602878C00711
:101410002AD0304968680839012810D009680228A4
:1014200010D0890700292EDA216821F00301014339
:101430002160FFF759FC804641F288390DE00968C8
:101440008903EFE78901EDE7FFF74EFCA0EB080108
:10145000494502D90320BDE8F0876868216801F09A
:101460000C01B1EB800FEFD1306800F00F00B842F3
:101470000BD9306820F00F0038433060306800F03E
:101480000F00B84201D00120E5E72878400705D5D4
:10149000E968206820F4E0500843206028780007BD
:1014A00006D52869216821F4604141EAC000206026
:1014B00000F038F82168084AC1F30311515CC840B4
:1014C0000649086006480068FFF728FC0020C2E7CC
:1014D000003C024008380240D22500080C000020E1
:1014E000040000200449054809680068044AC1F363
:1014F0008221515CC8407047083802400C0000202F
:10150000E22500080449054809680068044AC1F357
:101510004231515CC8407047083802400C0000203E
:10152000E2250008154910B51548096811F00C02AC
:1015300013D01449042A0FD0082A0ED10F4C241FAF
:101540002268236802F03F025B0207D52068C0F3DF
:101550008810A0FB010106E0084610BD2168C1F318
:101560008811A1FB00010023FEF7B6FE2168C1F33C
:101570000141491C4900B0FBF1F010BD08380240A0
:101580000024F40040787D012DE9F84F04004FF06D
:1015900000076ED02078DFF87CA3AAF10408C0070A
:1015A000A8F104054CD0DAF800105046C1F38101CF
:1015B000012908D00068C0F3810002280AD1D8F8B8
:1015C0000000400206D52868800339D560680028ED
:1015D000DFD035E06068B0F5803F0BD010B1B0F5DA
:1015E000A02F11D0286820F480302860286820F4CB
:1015F000802002E0286840F480302860606890B164
:10160000FFF772FB06460AE0286840F48020286055
:10161000F0E700BFFFF768FB801B642872D82868DA
:101620008003F7D50CE0FFF75FFB064605E000BF3F
:10163000FFF75AFB801B6428F0D828688003F7D492
:101640002078800742D5DAF80010504611F00C0FD0
:1016500008D00068C0F3810002280BD1D8F8000040
:10166000400207D42868800718D5E068012800D117
:1016700014E04AE1E0680028286817D040F0010033
:101680002860FFF731FB064605E000BFFFF72CFBA3
:10169000801B0228C2D828688007F7D520692968EE
:1016A00021F0F80141EAC00028600FE020F00100BD
:1016B0002860FFF719FB064605E000BFFFF714FBA3
:1016C000801B02281ED828688007F7D420780007DE
:1016D00029D5904861696C3000298146016812D093
:1016E00041F001010160FFF7FFFA064605E000BF87
:1016F000FFF7FAFA801B022804D8D9F80000800707
:10170000F6D510E089E021F001010160FFF7ECFA65
:10171000064604E0FFF7E8FA801B02287DD8D9F8D6
:1017200000008007F6D4207840076BD5DFF8E491FD
:1017300009F13809D9F80000C0000BD4D9F800101D
:1017400041F08051C9F80010D9F80000012700F0DD
:101750008050009070480168C90512D40168834622
:1017600041F480710160FFF7BFFA064605E000BF53
:10177000FFF7BAFA801B64284FD8DBF80000C005D9
:10178000F6D5644EA068683601280AD008B105284D
:1017900011D0306820F001003060306820F0040083
:1017A00002E0306840F001003060A068A0B1FFF7AF
:1017B0009BFA83460CE0306840F004003060F0E7AC
:1017C000FFF792FAA0EB0B0141F28830814268D812
:1017D00030688007F4D50EE0FFF786FA834607E00D
:1017E000FFF782FAA0EB0B0141F28830814258D812
:1017F00030688007F4D42FB1D9F8001021F080515F
:10180000C9F80010A069E0B3DAF80010C1F3810153
:1018100002294DD00228286800E042E020F08070C4
:10182000286003D0FFF760FA04463DE0FFF75CFA5A
:10183000064604E0FFF758FA801B022831D82868D2
:101840008001F7D4D4E90921DFF8D0C0D4E9070634
:1018500094F830304F0894F82C1030430CEB0744C8
:1018600044EA8212104340EA016040EA0370C8F87B
:101870000000286840F080702860FFF735FA0446C1
:1018800005E044E0FFF730FA001B022809D8286879
:101890008001F7D53BE000BFFFF726FA001B0228C6
:1018A00002D90320BDE8F88F28688001F4D42EE027
:1018B0000128D8F8000028D0E16900F480028A42AB
:1018C00023D1216A00F03F028A421ED1626A47F6A4
:1018D000C0710140B1EB821F17D1A16A4FF0FF32F6
:1018E00000F4403302EB5101B3EB014F0DD194F8FA
:1018F0002C1000F07062B2EB016F06D194F830103A
:1019000000F0E040B0EB017F01D00120CAE70020E9
:10191000C8E7000008380240007000400000FFFFE8
:10192000401EB0F1807F10B501D3012010BD4FF0F3
:10193000E02460610F21601700F0F5FB0020A0613A
:101940000721216110BD10B5040002D0A06F10B1B5
:1019500007E0012010BD002084F87400204600F04C
:1019600025F82420A0672068016821F001010160AA
:10197000204600F06BFA0128ECD0606A10B12046D6
:1019800000F0D2F92068416821F49041416020685C
:10199000816821F02A0181602068016841F001011D
:1019A00001602046BDE8104000F022BA10B586B0B4
:1019B000044614216846FEF728FD12492068884233
:1019C0001ED11148016841F010010160006800F06B
:1019D000100005900C481438016841F001010160C5
:1019E00000680221002200F0010005900323072473
:1019F0004FF4C0608DE81F0004486946FFF77EF889
:101A000006B010BD00100140443802400000024002
:101A10002DE9F84F0446C06F9A4616460D46202819
:101A200070D105B3FEB194F8740001286AD0012288
:101A300084F8742022214FF00008C4F88080E16708
:101A4000C4F860805834FFF74FF9814654F8500CC1
:101A500026804FF480536680FF21583C984208D17D
:101A600022691AB11EE00120BDE8F88F40F2FF1193
:101A700018E04FF07F0298B1B0F1805F15D0A4F864
:101A80005C8000BFB4F85C70984201D1206998B1C5
:101A90002E460025404607F0FF0884F8740024E035
:101AA000266936B9A4F85C10ECE7216909B13F2139
:101AB000F8E7A4F85C20E5E70026EBE700224B46B8
:101AC00020212046CDF800A000F0DAFA08B103206A
:101AD000CAE72068406A86B100EA080006F8010BF0
:101AE000B4F85A00401EA4F85A00B4F85A0000286E
:101AF000E4D12020E0670020B6E7384025F8020B4B
:101B0000EEE7FFE70220AFE72DE9F8430446806FD8
:101B10001F4616460D46202850D1CDB1C6B194F8C7
:101B2000740001284AD0012084F8740021224FF06B
:101B30000008C4F88080A267FFF7D6F88146A06845
:101B4000A4F85060A4F85260B0F5805F03D004E0C0
:101B50000120BDE8F883206928B12E465FF000051A
:101B600084F8748010E00026FAE78021204600F017
:101B700087FAB8B9C6B116F8010B21688862B4F8C3
:101B80005200401EA4F85200B4F852004B464FF0E9
:101B9000000200970028E8D14FF04001204600F0F5
:101BA0006FFA38B10320D4E735F8020B2168C0F38F
:101BB0000800E3E72020A0670020CAE70220C8E76A
:101BC000FEE700000749064810B508600846FEF722
:101BD0003FFE002803D0BDE81040FEF70DBD10BD4C
:101BE00000300240EC000020094808B5016841F0CF
:101BF00001010160016801F001010091016841F0FB
:101C000080010160006800F08000009008BD0000C5
:101C1000303802400D48002110B50B4C0C224FF417
:101C2000E1330460C0E90131C160C0E9041281619F
:101C3000C16101624162FFF786FE002803D0BDE862
:101C40001040FEF7D9BC10BD00100140100100206B
:101C5000FEE7FEE770477047FFF74CB830B5B7B006
:101C6000342124A8FEF7D1FB142131A8FEF7CDFBC7
:101C700090216846FEF7C9FB2548016841F0805174
:101C80000160006800F0805036902248016841F4FD
:101C90004041016000680224192300F4404036905E
:101CA00001202C934FF4D87582050104CDE92A4216
:101CB000CDE92D542F94CDE9240124A83094FFF7C9
:101CC00063FC08B172B6FEE7FFF7A0F808B172B680
:101CD000FEE74FF480524FF4A0510025CDE93412B5
:101CE00031AA0F20072182E8310031A8FFF762FBFB
:101CF00008B172B6FEE74020119500906846FFF7E4
:101D0000BBF8002801D072B6FEE737B030BD000046
:101D100040380240007000400248016841F4700100
:101D20000160704788ED00E090F82410C90706D0E4
:101D30000168836A4A6822F400321A434A6090F8C4
:101D40002410890706D50168C36A4A6822F48032E4
:101D50001A434A6090F82410490706D50168036BBE
:101D60004A6822F480221A434A6090F82410090736
:101D700006D50168436B4A6822F400421A434A6060
:101D800090F82410C90606D50168836B8A6822F48E
:101D900080521A438A6090F82410890606D501689B
:101DA000C36B8A6822F400521A438A6090F82410A8
:101DB000490611D50168036C4A6822F480121A435F
:101DC0004A60016CB1F5801F06D10168436C4A6816
:101DD00022F4C0021A434A6090F82410090606D57E
:101DE0000168826C486820F4002010434860704706
:101DF000F8B500260446C0F88060FEF775FF05467A
:101E000020686FF07E470068000708D500222B4647
:101E10004FF400112046009700F032F960B92068B5
:101E2000006840070AD500222B464FF48001204667
:101E3000009700F025F908B10320F8BD2020A06725
:101E4000E0672666002084F87460F8BD2DE9F04153
:101E500004460368C2698168D4E90450DFF8F4C11C
:101E60007D4E29431F68002510437C4A014307EA41
:101E70000C070F431F604FF400402168E7684B6870
:101E800023F440533B434B602768A369216AD7F88A
:101E900008C019432CF430630B43BB602168B14286
:101EA0000AD1116811F0030152D001297CD0022916
:101EB00071D003296ED184E0694B99420AD111682F
:101EC00011F00C0167D0042965D0082975D00C29C0
:101ED00060D176E0634B99420AD1116811F030016C
:101EE00059D010296BD0202967D0302952D168E011
:101EF0005D4B99420AD1116811F0C0014BD04029C5
:101F00005DD0802959D0C02944D15AE0574B99421D
:101F10000DD1116811F440713DD0B1F5807F4ED0E4
:101F2000B1F5007F49D0B1F5407F33D149E0504B46
:101F300099420FD1116811F4406109D0B1F5806F59
:101F40003DD0B1F5006F38D0B1F5406F22D138E007
:101F5000012120E0474B99420DD1116811F4405105
:101F600019D0B1F5805F2AD0B1F5005F25D0B1F569
:101F7000405F0FD125E0404B99420BD1116811F41D
:101F8000404108D0B1F5804F19D0814215D0B1F54C
:101F9000404F16D01021E369384A4FF6EF7683425E
:101FA0002FD109294BD201E009E006E0DFE801F07A
:101FB0000B0E11471347474716000221EBE7042198
:101FC000E9E70821E7E7FFF78DFA06E0FFF79AFA5D
:101FD00003E0104602E0FFF7A5FA88B3616840000D
:101FE00000EB5100B0FBF1F080B2A0F11001B14262
:101FF00025D84FF6F0732168C0F342021840104311
:1020000020E009291BD2DFE801F005080B1A0D1AA0
:102010001A1A1000FFF766FA06E0FFF773FA03E0FA
:10202000104602E0FFF77EFA50B1616800EB510004
:10203000B0FBF1F080B2A0F11001B14201D901254D
:1020400001E02168C86000206066A0662846BDE8FF
:10205000F0810000F369FFEF00100140903802406A
:102060000044004000480040004C00400050004048
:102070000014014000780040007C00400024F4007F
:102080002DE9F0479A4617460E460446089D4FF044
:1020900000094FF0200839E0681C37D0FEF724FE15
:1020A000A0EB0A00A84222D80DB3206801684907B6
:1020B0002CD5C069C043000528D423684FF40061C3
:1020C000196221680B6823F4D0730B6021688B6858
:1020D00023F001038B60C4F87880C4F87C80C4F8D6
:1020E000808000BF032084F87490BDE8F0872168E9
:1020F0000B6823F4D0730B6021688B6823F0010315
:102100008B60C4F87880C4F87C80EBE72068C069F5
:1021100036EA000004D00020B842BDD00020E4E739
:102120000120F9E7FEE7090700284FEA116104DB07
:1021300000F1E02080F80014704700F00F0000F17B
:10214000E02080F8141D704738B5044600208DF853
:1021500000003220FEF7CCFB2078012100F0E0F8EF
:1021600000210122084600F03DF901218DF8000010
:10217000684600F02DF938BD38B5044600208DF8CA
:1021800000003220FEF7B4FB2078012100F0C8F8EF
:10219000E1780022A07800F025F901218DF80000F7
:1021A000684600F015F938BD38B5044600208DF8B2
:1021B00000003220FEF79CFB2078012100F0B0F8EF
:1021C0000020FEF7B7F9E178A07800F061F98DF80A
:1021D00000000020FEF7A0F90121684600F0F8F8A1
:1021E00038BD38B504460020ADF800003220FEF7B7
:1021F0007FFB2078022100F093F800F093F9022190
:10220000ADF80000684600F0E3F838BD38B5044684
:1022100000208DF800003220FEF76AFB20780121B3
:1022200000F07EF800F076F901218DF80000684694
:1022300000F0CEF838BD38B504463220FEF758FB22
:102240002078012100F06CF810208DF800000121A9
:10225000684600F0BDF838BD1CB5044600200121D9
:102260008DF8000032208DF80410FEF741FB207835
:10227000012100F055F8D4F80240204600F086F91C
:102280004FF0010118B101A800F0A2F81CBD68468A
:1022900000F09EF8641CA0471CBDF8B50446002061
:1022A0008DF800003220A679D4F80250FEF720FB0A
:1022B0002078012100F034F8284600F067F938B1A1
:1022C00001208DF800000121684600F081F8F8BD7A
:1022D0000020FEF72FF9E01D3246294600F0FFF8F6
:1022E0008DF800000020FEF717F9ECE738B504463A
:1022F0003220FEF7FDFA2078022100F011F800F0FC
:1023000038F90221ADF80000684600F061F838BDE8
:102310000249086880F30888486800470080000880
:1023200008B5A5204FF0FF3302228DF800000348C6
:102330008DF801106946FFF7E7FB08BD100100208A
:10234000214C4FF0FF352048C821FEF73CF81E49CC
:1023500001221E482B46FFF75BFB2278611C1B48BD
:102360002B46FFF755FB607851380C28EBD2DFE89D
:1023700000F007060B0F13171B1F06230627E2E7C3
:102380001148FFF758FFDEE70F48FFF72AFFDAE7AB
:102390000D48FFF73BFFD6E70B48FFF75DFFD2E79D
:1023A0000948FFF701FFCEE70748FFF776FFCAE7C6
:1023B0000548FFF7E1FEC6E70348FFF797FFC2E7CE
:1023C0000148FFF7C1FEBEE72400002010010020F5
:1023D0008AB24FF0FF3301460148FFF795BB00007A
:1023E0001001002070B5284D0646284CBAB1FEF702
:1023F00017FB2868C003FCD4206820F00040206050
:10240000206840F47F002060206840F002002060D7
:102410002868C003FCD400BFFEF7F8FA03E00129E6
:1024200003D0022916D0002070BDFEF7F9FA286803
:10243000C003FCD4206820F000402060206820EA1F
:1024400006402060206840F0020020602868C00339
:10245000FCD4E1E7FEF7E4FA2868C003FCD4206866
:1024600040F000402060206820F47F002060206859
:1024700040EA06402060206840F0020020602868A2
:10248000C003FCD4C8E700000C3C0240143C0240EE
:1024900010B5082986B020D8FF284FF001031AD0C4
:1024A00007281AD8C0F10802D2B2914200D91146C9
:1024B00000220092CDE902010193FEF707FB022002
:1024C000049005A96846FEF725FA0446FEF794FA3B
:1024D000204606B010BD0093EEE70420F9E72DE991
:1024E000F041002516460F468046FEF7EFFA00241D
:1024F00008E0002318F8042039191846FEF7A4FA5A
:10250000641C0546B442F4D3FEF776FA2846BDE8CB
:10251000F081000002480068C0F307207047000007
:1025200000C0FF1F02480068C0F30B0070470000A6
:10253000002004E010B5FEF7E5FBFFF78FFBFFF787
:1025400053FBFFF73FFBFFF765FB0120FDF7C2FFE1
:102550000020FDF7BFFF00210846FEF705F8002028
:10256000FDF7F6FF08B1FFF7EBFEFFF7D1FE002005
:1025700010BD00B589B0FEF753FA6846FEF712FAAF
:10258000FEF73AFA029809B080B200BD0B49014447
:10259000B1F5B82F0ED90A490144B1F5804F09D9D8
:1025A000A0F10061B1F5001F04D306490844B0F55D
:1025B000805F01D800207047012070470000FEDFD7
:1025C0000040F8DF00C0FDBF4FF04070E1EE100AA0
:1025D000704700000000000000000102030406072D
:1025E00008090000000001020304010006000000C9
:1025F000102600080000002024000000340200081B
:102600003426000824000020EC07000050020008D7
:102610000100000010000000000000000024F40091
:1026200000000240002000002000000000240240C2
:042630000024024040
:04000005080001F9F5
:00000001FF
