:100000000C9434000C9451000C9451000C94510049
:100010000C9451000C9451000C9451000C9451001C
:100020000C9451000C9451000C9451000C9451000C
:100030000C9451000C9468050C9451000C945100E0
:100040000C9451000C9451000C94F1050C94510047
:100050000C9451000C9451000C9451000C945100DC
:100060000C9451000C94510011241FBECFEFD8E026
:10007000DEBFCDBF12E0A0E0B1E0E2E8F6E202C0F0
:1000800005900D92A63FB107D9F725E0A6EFB2E0A3
:1000900001C01D92AE32B207E1F70E9453000C94EA
:1000A0003F130C9400000E94500583EC9CE00E94DA
:1000B000630560E875E280E090E00E9497050E9489
:1000C000D0040E949E0478940E941E070E94ED08AE
:1000D0000E94FF0A0E9460060E9491060E94BD03D2
:1000E0000E94AC030E94B30BFDCFBF92CF92DF9270
:1000F000EF92FF920F931F93CF93DF937C016B01DD
:1001000086E090E00E94690E8C01B12C0DC0CB2DD1
:10011000D0E0CC0FDD1FC00FD11F83E090E00E9424
:10012000690E99838883B39482E08B1580F76DE321
:1001300070E0C7010E94AD0F66E371E00E94A80F56
:100140000196C0E012C0EC2FF0E0EE0FFF1FE00FB1
:10015000F11FBC01808191810E94B80F66E371E0BC
:1001600080E090E00E94A80FCF5FC33010F40097AA
:1001700051F7C33069F414C0EC2FF0E0EE0FFF1F0D
:10018000E00FF11F808191810E94010FCF5F01C0BC
:10019000C0E0C33088F3C8010E94010F81E028C08D
:1001A000F801808191810E948A0FF6018283F80113
:1001B000828193810E948A0FF6018183F8018481F4
:1001C00095810E948A0FF6018083C0E00BC0EC2F5E
:1001D000F0E0EE0FFF1FE00FF11F808191810E9480
:1001E000010FCF5FC33098F3C8010E94010F80E078
:1001F000DF91CF911F910F91FF90EF90DF90CF9003
:10020000BF9008950F931F93CF93DF93EB01042FBB
:10021000152FE881F9818091220190912301DF015E
:10022000A80FB91F2C912D3379F02F33A9F12A3063
:1002300009F052C089E1E8E3F1E0A42FB52F019065
:100240000D928A95E1F751C00196E80FF91F808160
:100250008F3351F48FE1E1E5F1E0A42FB52F019048
:100260000D928A95E1F741C08BED93E00E943C0826
:100270006BED73E0888199810E9475008BED93E0AE
:100280000E94000887E0E0E7F1E0A02FB12F019085
:100290000D928A95E1F729C08BED93E00E943C080E
:1002A000EBEDF3E02081918182811F922F931F92C9
:1002B0009F931F928F9387E791E09F938F931F9354
:1002C0000F930E9455108DB79EB70A960FB6F894FB
:1002D0009EBF0FBE8DBF09C081E1E4E8F1E0A42F0D
:1002E000B52F01900D928A95E1F780E0DF91CF91D3
:1002F0001F910F910895BF92CF92DF92EF92FF92DC
:100300000F931F93CF93DF937C016B0186E090E006
:100310000E94690E8C01B12C0DC0CB2DD0E0CC0F0A
:10032000DD1FC00FD11F83E090E00E94690E99830A
:100330008883B39482E08B1580F76DE370E0C7018A
:100340000E94AD0F66E371E00E94A80F0196C0E025
:1003500012C0EC2FF0E0EE0FFF1FE00FF11FBC0109
:10036000808191810E94B80F66E371E080E090E0A7
:100370000E94A80FCF5FC33010F4009751F7C3302D
:1003800069F414C0EC2FF0E0EE0FFF1FE00FF11F37
:10039000808191810E94010FCF5F01C0C0E0C33016
:1003A00088F3C8010E94010F81E028C0F801808114
:1003B00091810E948A0FF6018483F80182819381E2
:1003C0000E948A0FF6018583F801848195810E943D
:1003D0008A0FF6018683C0E00BC0EC2FF0E0EE0F31
:1003E000FF1FE00FF11F808191810E94010FCF5FFD
:1003F000C33098F3C8010E94010F80E0DF91CF91D4
:100400001F910F91FF90EF90DF90CF90BF900895D4
:100410000F931F93CF93DF93EB01042F152F2881A8
:100420003981E0911A01F0911B01E20FF31F8081E5
:100430008D3379F08F33D1F18A3009F057C089E1DB
:10044000E8E3F1E0A42FB52F01900D928A95E1F732
:1004500056C080912201909123010196F901E80F85
:10046000F91F80818F3351F48CE1E5E9F1E0A42F8D
:10047000B52F01900D928A95E1F741C08BED93E085
:100480000E943C086BED73E0888199810E947B019A
:100490008BED93E00E94000887E0E0E7F1E0A02FF9
:1004A000B12F01900D928A95E1F729C08BED93E071
:1004B0000E943C08EBEDF3E02681958184811F9238
:1004C0002F931F929F931F928F9381EB91E09F93A5
:1004D0008F931F930F930E9455108DB79EB70A9666
:1004E0000FB6F8949EBF0FBE8DBF09C081E1E4E84E
:1004F000F1E0A42FB52F01900D928A95E1F780E0ED
:10050000DF91CF911F910F910895EF92FF920F937A
:100510001F93CF93DF93FB01C081D18180910A01AA
:1005200090910B01FE01E80FF91F20812D3379F026
:100530002F3309F486C02A3009F08CC089E1E8E342
:10054000F1E0DA0101900D928A95E1F78BC00196F6
:10055000FE01E80FF91F80818F3349F48BE1EEEB48
:10056000F1E0DA0101900D928A95E1F77BC07A0102
:1005700069ED71E0CE010E94DC0F8C01892B99F0AE
:100580006EED71E0CE010E94DC0F892B61F085B128
:100590008E7F85B987E0E0E7F1E0D70101900D9209
:1005A0008A95E1F75FC0012B99F061EE71E0CE0111
:1005B0000E94DC0F892B61F085B1816085B987E0ED
:1005C000E0E7F1E0D70101900D928A95E1F74AC08A
:1005D00065EE71E0CE010E94DC0F8C01892B99F051
:1005E0006EED71E0CE010E94DC0F892B61F085B1C8
:1005F0008D7F85B987E0E0E7F1E0D70101900D92AA
:100600008A95E1F72FC0012B99F061EE71E0CE01E0
:100610000E94DC0F892B61F085B1826085B987E08B
:10062000E0E7F1E0D70101900D928A95E1F71AC059
:1006300084E1EAEEF1E0D70101900D928A95E1F7AD
:1006400011C08BE1EEEBF1E0DA0101900D928A9599
:10065000E1F708C081E1E4E8F1E0DA0101900D92F0
:100660008A95E1F780E0DF91CF911F910F91FF9084
:10067000EF9008950F931F93CF93DF93FB01C081F9
:10068000D1812091120130911301FE01E20FF31F7D
:1006900090819D3381F09F3309F445C09A3009F071
:1006A0004CC089E1E8E3F1E0A42FB52F01900D9251
:1006B0008A95E1F74BC02F5F3F4FFE01E20FF31F1A
:1006C00080818F3351F48AE1EEEFF1E0A42FB52F52
:1006D00001900D928A95E1F739C0152F042F68E13A
:1006E00072E0CE010E94DC0F892B99F00E949906DE
:1006F0001F928F938DE192E09F938F931F930F939F
:100700000E9455100F900F900F900F900F900F9028
:100710001DC084E1EAEEF1E0A02FB12F01900D920F
:100720008A95E1F713C08AE1EEE2F2E0A42FB52F3B
:1007300001900D928A95E1F709C081E1E4E8F1E0CA
:10074000A42FB52F01900D928A95E1F780E0DF91FB
:10075000CF911F910F9108958EE191E00E947B0649
:1007600086E191E00E947B068EE091E00E947B068C
:1007700086E091E00E947B06089545E954E068EE2A
:1007800073E080E00E94030B08950F931F93CF93B3
:100790008C0164E081E00E943109F8018281CDEC96
:1007A0008C9F812D1124869586958695805D0E946B
:1007B0008508F80182818C9F912D1124969596953C
:1007C0009695990F292F220F220F920F891B805D7A
:1007D0000E9485088AE30E948508F80181818C9F28
:1007E000812D1124869586958695805D0E948508C9
:1007F000F80181818C9F912D11249695969596955F
:10080000990F292F220F220F920F891B805D0E94C2
:1008100085088AE30E948508F80180818C9F812DDC
:100820001124869586958695805D0E948508F8013D
:1008300080818C9F912D1124969596959695990F70
:10084000292F220F220F920F891B805D0E9485089D
:1008500063E082E00E943109F80184818C9F812D40
:100860001124869586958695805D0E948508F801FD
:1008700084818C9F912D1124969596959695990F2C
:10088000292F220F220F920F891B805D0E9485085D
:100890008AE30E948508F80185818C9F812D1124AF
:1008A000869586958695805D0E948508F8018581EC
:1008B0008C9F912D1124969596959695990F292F99
:1008C000220F220F920F891B805D0E9485088AE308
:1008D0000E94850882E992E00E941B09F801868146
:1008E0008C9F812D1124869586958695805D0E942A
:1008F0008508F80186818C9FC12D1124C695C69567
:10090000C695CC0F9C2F990F990FC90F8C1B805D3A
:100910000E94850860E081E00E94310980E20E9427
:100920008508CF911F910F9108958BED93E00E9460
:100930003C088BED93E00E94C503089584B181606B
:1009400084B984B1826084B985B1816085B985B18B
:10095000826085B9ECE7F0E0808180648083EAE71B
:10096000F0E08081866880830895ECE7F0E0908174
:10097000907E90839081892B80838FE39FE1019704
:10098000F1F700C00000EAE7F0E080818064808336
:1009900080818061808380917800909179000895B2
:1009A0001092B90088E48093B800089594EA909377
:1009B000BC009091BC009923E4F79091B900987F16
:1009C000983091F48093BB0084E88093BC008091C0
:1009D000BC008823E4F78091B900887F883131F02A
:1009E000803231F482E0089580E0089581E0089536
:1009F00083E0089594EA9093BC009091BC00992301
:100A0000E4F79091B900987F903191F48093BB0006
:100A100084E88093BC008091BC008823E4F7809137
:100A2000B900887F803431F0803231F482E008955B
:100A300080E0089581E0089583E0089584E980933B
:100A4000BC008091BC0084FDFCCF08958093BB0066
:100A500084E88093BC008091BC008823E4F78091F7
:100A6000B900887F883221F0803321F481E0089535
:100A700080E0089582E0089584EC8093BC0080912A
:100A8000BC008823E4F78091BB00089584E880933C
:100A9000BC008091BC008823E4F78091BB000895DE
:100AA00080E891EC90938500809384001092800000
:100AB000E1E8F0E0808181608083EFE6F0E0808112
:100AC0008160808308959093E3038093E203089507
:100AD0001F920F920FB60F9211242F933F934F93B3
:100AE0005F936F937F938F939F93AF93BF93EF9396
:100AF000FF9380E891EC9093850080938400E091CF
:100B0000E203F091E30380E090E00995FF91EF911B
:100B1000BF91AF919F918F917F916F915F914F9115
:100B20003F912F910F900FBE0F901F901895DC01F1
:100B3000CB01880F991FAA1FBB1F880F991FAA1FDF
:100B4000BB1F9C01AD01220F331F441F551F220FF5
:100B5000331F441F551F60E074E284EF90E00E9451
:100B6000190E8FEF820F8093C400DA01C90101973B
:100B7000A109B109892F9A2FAB2FBB278093C500FC
:100B8000E1ECF0E0808188698083E2ECF0E0808134
:100B90008660808308958091C0008823E4F7809167
:100BA000C60008959091C00095FFFCCF8093C600C9
:100BB00008950F931F93CF938C01C0E003C00E9450
:100BC000D205CF5FF801EC0FF11D80818111F7CFC5
:100BD000CF911F910F9108959093E5038093E403C3
:100BE00008951F920F920FB60F9211242F933F93E7
:100BF0004F935F936F937F938F939F93AF93BF9325
:100C0000CF93DF93EF93FF93C091E403D091E5037B
:100C10000E94CB05FE010995FF91EF91DF91CF91E5
:100C2000BF91AF919F918F917F916F915F914F9104
:100C30003F912F910F900FBE0F901F901895682F26
:100C400086EE93E00E94E00A08950F931F93CF93DE
:100C5000DF9348EF52E06AE086EE93E00E94F00AEC
:100C6000882349F180E490E00E94690E8C0180E4C1
:100C700090E00E94690EEC0140E4B80186EE93E03A
:100C80000E94130A40E450E0BE01C8010E944807D8
:100C9000CE010E94D90580E4F801982F11929A950F
:100CA000E9F7FE0111928A95E9F7C8010E94010F48
:100CB000CE010E94010FDF91CF911F910F910895F6
:100CC0000F931F9300E110E020E030E041E06CEF73
:100CD00072E086EE93E00E9441098FE196E00E9467
:100CE000000B45E256E064E670E080E00E94030BF2
:100CF0001F910F9108950E94F706089580E00E94C9
:100D0000B504BC0180E090E00E940A0D23E23BEDB7
:100D100049EF5EE30E94700D0E94DB0C60930C03B0
:100D200008954EE756E064E670E080E00E94030B11
:100D3000089580910C030895CA0140910F035091CA
:100D40001003452B69F441E050E0509310034093A9
:100D50000F03A90165E972E00E94CD0F81E00895BB
:100D60001092100310920F03A9016AE972E00E9429
:100D7000CD0F80E00895E0910D03F0910E03EE0F8A
:100D8000FF1FEF5EFC4F0190F081E02D83818F9378
:100D900082818F9381818F9380818F938EE992E0FE
:100DA0009F938F935F934F930E94551080910D03F3
:100DB00090910E03019690930E0380930D03209162
:100DC000D9033091DA034DB75EB7485F5F4F0FB676
:100DD000F8945EBF0FBE4DBF8217930730F010929C
:100DE0000E0310920D0380E0089581E00895209194
:100DF000D9033091DA0324363105F0F4FC01A081E7
:100E0000B181FD0101900020E9F73197EA1BFB0B4E
:100E1000DC011596FC93EE931497F901EE0FFF1F7A
:100E2000EF5EFC4F918380832F5F3F4F3093DA0357
:100E30002093D90381E0089580E008958EE291E047
:100E40000E94F70686E291E00E94F7060895FC01F1
:100E5000DA018D939C9391E016C0319680818823AE
:100E600021F08032D1F701C0319680818032E1F3E8
:100E7000882359F0A92FB0E0AA0FBB1FA40FB51FFC
:100E8000ED93FC939F5F9A3048F3FB0190830895A4
:100E90008F929F92AF92BF92CF92DF92EF92FF928A
:100EA0000F931F93CF93DF93CDB7DEB765970FB640
:100EB000F894DEBF0FBECDBF7C01B62EA72E942EB8
:100EC000852E198200E010E0C12CD12C20C0F80141
:100ED000EE0FFF1FEF5EFC4FC080D180D60114964D
:100EE0004D915C911597F701E40FF51F80818A30D1
:100EF00021F08D3311F08F3341F4F601608171815F
:100F0000C7010E94BF0F892B59F00F5F1F4F8091BF
:100F1000D9039091DA0308171907C8F280E001C0DD
:100F200081E08823F9F0D60116968D919C91179750
:100F3000892B59F1AE014E5F5F4FBE016F5F7F4F4E
:100F4000C7010E942707D6011696ED91FC911797CD
:100F5000292D382D4B2D5A2DBE016E5F7F4F898173
:100F6000099514C0FF92EF9289EA92E09F938F93C4
:100F70008F929F92AF92BF920E9425100FB6F89465
:100F8000DEBF0FBECDBF80E001C080E065960FB62A
:100F9000F894DEBF0FBECDBFDF91CF911F910F91AF
:100FA000FF90EF90DF90CF90BF90AF909F908F9089
:100FB00008956AE070E00E94050E62957295707F58
:100FC0007627607F7627860F971F0895AC014F70B4
:100FD00055279C0135952795359527953595279566
:100FE00035952795C901880F991F220F331F220FAE
:100FF000331F220F331F820F931F840F951F0895F5
:10100000CF93DF93EC018A8190E00E94D9078A8315
:10101000898190E00E94D90789838C8190E00E94A9
:10102000D9078C838D8190E00E94D9078D838E81B2
:1010300090E00E94D9078E8380ED0E94D60480E064
:101040000E94260588810E94260589810E94260526
:101050008A810E9426058B810E9426058C810E9430
:1010600026058D810E9426058E810E9426050E94FC
:101070001E05DF91CF910895CF93DF93EC0180EDB2
:101080000E94D60480E00E94260581ED0E94FA04A9
:101090000E943C0588830E943C0589830E943C0590
:1010A0008A830E943C058B830E943C058C830E94AE
:1010B0003C058D830E9446058E830E941E05888113
:1010C00090E00E94E6078883898190E00E94E6070D
:1010D00089838A8190E00E94E6078A838B8190E071
:1010E0000E94E6078B838C8190E00E94E6078C8348
:1010F0008D8190E00E94E6078D838E8190E00E94B2
:10110000E6078E83DF91CF9108950F931F93CF93BE
:1011100090E1899F80011124C82FC07F80E40E9444
:10112000D6048C2F8D600E9426058FE19EE40197E6
:10113000F1F700C000008C2F89600E9426058FE126
:101140009EE40197F1F700C00000802F8D600E949F
:1011500026058FE19EE40197F1F700C00000802F83
:1011600089600E9426050E941E05CF911F910F9154
:1011700008950F931F93CF9390E1899F80011124CD
:10118000C82FC07F80E40E94D6048C2F8C600E9400
:1011900026058FE19EE40197F1F700C000008C2F37
:1011A00088600E9426058FE19EE40197F1F700C058
:1011B0000000802F8C600E9426058FE19EE401973D
:1011C000F1F700C00000802F88600E9426050E9471
:1011D0001E05CF911F910F91089582E00E94B908DA
:1011E0008FE39FE10197F1F700C0000088E20E94C1
:1011F000B9088FE99FE00197F1F700C000008CE08B
:101200000E94B9088FE99FE00197F1F700C0000044
:1012100080E80E94B9088FE99FE00197F1F700C0CC
:10122000000081E00E94B9088FE39FE10197F1F788
:1012300000C0000008950F931F93CF93DF938C019C
:10124000C0E0D0E003C00E9485082196F801EC0FB1
:10125000FD1F80818111F7CFDF91CF911F910F91F9
:101260000895813011F480E801C080EC860F815030
:101270000E94B9088FE39FE10197F1F700C00000D9
:1012800008950F931F93FC0171836083438304834C
:10129000158326833783148615861686178610864F
:1012A00011861286138612821F910F910895FC01F8
:1012B000828108950F931F93CF93DF93EC010E94D7
:1012C0005709882329F06C817D818E819F8124C0FC
:1012D00088859985AA85BB854C855D856E857F85CA
:1012E00084179507A607B70748F08C019D01041BDA
:1012F000150B260B370BC901B8010EC00C811D81DF
:101300002E813F81841B950BA60BB70BBC01CD0131
:10131000600F711F821F931FDF91CF911F910F915B
:101320000895FC014485558566857785808591857E
:10133000A285B385481759076A077B0729F482817C
:10134000882321F080E0089580E0089581E00895E9
:101350008F929F92AF92BF92EF92FF920F931F9343
:10136000CF93DF93EC018B01E42EF12CB12C4CC018
:10137000CE010E94570981114AC020E018C048815F
:10138000598188849984AA84BB8490E0889DF00167
:10139000899DF00D989DF00D1124E20FF11DE40FD1
:1013A000F51FD8018C9180832F5F0F5F1F4F8B81BA
:1013B000281728F388859985AA85BB850196A11DE4
:1013C000B11D88879987AA87BB874C815D816E8113
:1013D0007F8184179507A607B70721F41886198619
:1013E0001A861B86488559856A857B858C859D85EF
:1013F000AE85BF85481759076A077B0711F481E05E
:101400008A83F394BB24B394FE1408F4B1CF8B2DDC
:10141000DF91CF911F910F91FF90EF90BF90AF9010
:101420009F908F9008958F929F92AF92BF92EF926C
:10143000FF920F931F93CF93DF93EC018B01E42E68
:10144000F12CB12C3EC0CE010E94910981113CC00B
:1014500040E018C0E881F9818C849D84AE84BF840B
:1014600030E0289DC001299D900D389D900D1124DC
:10147000E80FF91FE40FF11D8081F80180834F5FB1
:101480000F5F1F4F2B81421728F38C859D85AE85FA
:10149000BF850196A11DB11D8C879D87AE87BF8733
:1014A0001A824C815D816E817F8184179507A60722
:1014B000B70721F41C861D861E861F86F394BB2465
:1014C000B394FE1408F4BFCF8B2DDF91CF911F9101
:1014D0000F91FF90EF90BF90AF909F908F900895E5
:1014E0004F925F926F927F928F929F92AF92BF9234
:1014F000EF92FF920F931F93CF93DF93EC018B0139
:101500007A018C849D84AE84BF840E945A0920E0B5
:101510003CC04A2F50E0F801E40FF51FB0818881EC
:10152000998130E0289DB001299D700D389D700D86
:101530001124840F951F860F971FFC018081B8131B
:1015400008C0AF5F01C0A0E02B81A21710F321E01B
:1015500001C020E0222331F0F70180829182A28233
:10156000B3821EC0FFEF8F1A9F0AAF0ABF0A8C8199
:101570009D81AE81BF8188169906AA06BB0619F423
:10158000812C912C5401C301B2012B013C0131E0AB
:10159000431A510861087108672B682B692B99F66B
:1015A000822FDF91CF911F910F91FF90EF90BF900D
:1015B000AF909F908F907F906F905F904F90089525
:1015C000CF93DF931F92CDB7DEB7698341E0BE01B1
:1015D0006F5F7F4F0E94A8090F90DF91CF91089510
:1015E000CF93DF931F92CDB7DEB76983BE016F5FE4
:1015F0007F4F0E94700A0F90DF91CF910895089558
:101600000E94EC0508958F929F92BF92CF92DF9235
:10161000EF92FF920F931F93CF93DF93C091F60346
:10162000D091F703C931D10508F04AC07A014B01C6
:10163000B82E6E01CC0CDD1C86010C0F1D1F000F97
:10164000111F000F111F07501C4F0E94680CF8015A
:1016500020833183428353836483758386EF93E0D1
:10166000D601AC0FBD1FAA0FBB1FAA0FBB1FAA50EC
:10167000BC4F1A969C928E9219979E012F5F3F4FF6
:10168000F901EE0FFF1FE20FF31FEE0FFF1FEE0F2A
:10169000FF1FEA50FC4FF182E0821296BC92FC01DF
:1016A000208131812F5F3F4F31832083C6018C0F12
:1016B0009D1F880F991F880F991F88509C4F02C04B
:1016C00080E090E0DF91CF911F910F91FF90EF901C
:1016D000DF90CF90BF909F908F90089520E030E0F2
:1016E00039C0B901660F771F620F731F660F771F2E
:1016F000660F771F68507C4F6817790709F12F5FD5
:101700003F4F28C0C9010196D901AA0FBB1FA20FE4
:10171000B31FAA0FBB1FAA0FBB1FA850BC4FFC01D1
:10172000EE0FFF1FE80FF91FEE0FFF1FEE0FFF1F59
:10173000E850FC4F2CE001900D922A95E1F79C01B6
:10174000CA01019728173907E8F29093F7038093AD
:10175000F60308954091F6035091F70324173507D7
:1017600008F4BFCF0895CF92DF92EF92FF921F93BC
:10177000CF93DF9310E048C0C12FD0E0FE01EE0F01
:10178000FF1FDF01AC0FBD1FAA0FBB1FAA0FBB1F9E
:10179000AA50BC4F1996CD90DC901A97E12CF12CF1
:1017A000EC0FFD1FEE0FFF1FEE0FFF1FE750FC4F6A
:1017B0004081518162817381848195810E94890C6D
:1017C0006C157D058E059F05F4F0CE01880F991FDD
:1017D000FC01EC0FFD1FEE0FFF1FEE0FFF1FEA5085
:1017E000FC4F21E02387C80FD91FCC0FDD1FCC0F82
:1017F000DD1FC750DC4F0E94680C288339834A8361
:101800005B836C837D831F5F812F90E02091F603C3
:101810003091F7038217930708F4AECF10E046C06B
:10182000C12FD0E0FE01EE0FFF1FEC0FFD1FEE0FEA
:10183000FF1FEE0FFF1FEA50FC4F83858823A9F19D
:10184000CE010196FC01EE0FFF1FE80FF91FEE0F0E
:10185000FF1FEE0FFF1FEA50FC4F0190F081E02DBB
:101860007E01EE0CFF1CC7018C0F9D1F880F991F76
:10187000880F991F81509C4F0995F701EC0FFD1FB0
:10188000EE0FFF1FEE0FFF1FEA50FC4F1386828101
:10189000813059F4C7018C0F9D1F880F991F880F45
:1018A000991F88509C4F0E946E0B1F5F812F90E004
:1018B0002091F6033091F7038217930708F4B0CF15
:1018C000DF91CF911F91FF90EF90DF90CF9008951F
:1018D000CF93DF9300D000D000D0CDB7DEB786E045
:1018E000E4E2F5E0DE01119601900D928A95E1F7B0
:1018F00029813A814B815C816D817E8180E090E01D
:1019000026960FB6F894DEBF0FBECDBFDF91CF9104
:101910000895CF93DF9300D000D000D0CDB7DEB7CD
:1019200049835A836B837C838D839E83E4E2F5E055
:1019300042815381648175818B819C81AD81BE819F
:101940009A01AB01281B390B4A0B5B0BA8EEB3E0E5
:101950000E944A0E20813181DC01CB01820F931F4E
:10196000A11DB11D29813A81BC01CD01621B730B00
:101970008109910926960FB6F894DEBF0FBECDBF40
:10198000DF91CF910895E4E2F5E0808191810196A5
:1019900091838083883E934068F082819381A48103
:1019A000B5810196A11DB11D82839383A483B58364
:1019B0001182108208950E944F0D88F09F5798F071
:1019C000B92F9927B751B0F0E1F0660F771F881F44
:1019D000991F1AF0BA95C9F714C0B13091F00E945E
:1019E000690DB1E008950C94690D672F782F882751
:1019F000B85F39F0B93FCCF3869577956795B39585
:101A0000D9F73EF490958095709561957F4F8F4FF3
:101A10009F4F0895E89409C097FB3EF490958095F8
:101A2000709561957F4F8F4F9F4F9923A9F0F92FA4
:101A300096E9BB279395F695879577956795B79522
:101A4000F111F8CFFAF4BB0F11F460FF1BC06F5F08
:101A50007F4F8F4F9F4F16C0882311F096E911C01A
:101A6000772321F09EE8872F762F05C0662371F03B
:101A700096E8862F70E060E02AF09A95660F771F4F
:101A8000881FDAF7880F9695879597F9089557FD7F
:101A90009058440F551F59F05F3F71F04795880FDC
:101AA00097FB991F61F09F3F79F087950895121673
:101AB00013061406551FF2CF4695F1DF08C016161F
:101AC00017061806991FF1CF8695710561050894D0
:101AD0000895E894BB2766277727CB0197F90895E7
:101AE0000E94830D0C94F40D0E94E60D38F00E94C4
:101AF000ED0D20F0952311F00C94DD0D0C94E30D09
:101B000011240C946A0D0E94470D70F3959FC1F348
:101B1000950F50E0551F629FF001729FBB27F00D9B
:101B2000B11D639FAA27F00DB11DAA1F649F6627F0
:101B3000B00DA11D661F829F2227B00DA11D621F3F
:101B4000739FB00DA11D621F839FA00D611D221FF9
:101B5000749F3327A00D611D231F849F600D211DDD
:101B6000822F762F6A2F11249F5750409AF0F1F060
:101B700088234AF0EE0FFF1FBB1F661F771F881FC9
:101B800091505040A9F79E3F510580F00C94DD0D17
:101B90000C946A0D5F3FE4F3983ED4F386957795F5
:101BA0006795B795F795E7959F5FC1F7FE2B880F6F
:101BB000911D9695879597F9089597F99F6780E805
:101BC00070E060E008959FEF80EC089500240A948F
:101BD0001616170618060906089500240A94121608
:101BE0001306140605060895092E0394000C11F43B
:101BF000882352F0BB0F40F4BF2B11F460FF04C0E8
:101C00006F5F7F4F8F4F9F4F089597FB072E16F4FE
:101C1000009407D077FD09D00E94550E07FC05D02F
:101C20003EF4909581959F4F0895709561957F4FF3
:101C30000895A1E21A2EAA1BBB1BFD010DC0AA1F0D
:101C4000BB1FEE1FFF1FA217B307E407F50720F025
:101C5000A21BB30BE40BF50B661F771F881F991FA0
:101C60001A9469F760957095809590959B01AC01E9
:101C7000BD01CF010895A29FB001B39FC001A39FF2
:101C8000700D811D1124911DB29F700D811D1124B5
:101C9000911D08950E943B0EA59F900DB49F900D3D
:101CA000A49F800D911D11240895AA1BBB1B51E117
:101CB00007C0AA1FBB1FA617B70710F0A61BB70BBC
:101CC000881F991F5A95A9F780959095BC01CD0161
:101CD00008950F931F93CF93DF938230910510F4F3
:101CE00082E090E0E0912C05F0912D0520E030E0BD
:101CF000A0E0B0E0309719F1408151810281138159
:101D000048175907C8F08417950769F4109731F000
:101D100012960C93129713961C9327C000932C05D0
:101D200010932D0522C02115310519F042175307D4
:101D300018F49A01BD01EF01DF01F801DBCF211595
:101D40003105F9F0281B390B2430310580F48A81E4
:101D50009B816115710521F0FB019383828304C08F
:101D600090932D0580932C05FE01329644C0FE0110
:101D7000E20FF31F81939193225031093983288315
:101D80003AC020912A0530912B05232B41F4209154
:101D900002013091030130932B0520932A052091F5
:101DA0000001309101012115310541F42DB73EB7F5
:101DB0004091040150910501241B350BE0912A0547
:101DC000F0912B05E217F307A0F42E1B3F0B281709
:101DD000390778F0AC014E5F5F4F2417350748F0A4
:101DE0004E0F5F1F50932B0540932A0581939193CB
:101DF00002C0E0E0F0E0CF01DF91CF911F910F91A1
:101E00000895CF93DF93009709F481C0FC013297C6
:101E100013821282A0912C05B0912D05109781F4A8
:101E200020813181820F931F20912A0530912B054B
:101E30002817390751F5F0932B05E0932A0567C061
:101E4000ED0120E030E0CE17DF0740F44A815B81EE
:101E50009E0141155105F1F0EA01F5CFD383C2830C
:101E600040815181840F951FC817D90759F4888183
:101E70009981840F951F0296918380838A819B812B
:101E8000938382832115310529F4F0932D05E09386
:101E90002C053DC0E901FB83EA8349915991C40FA8
:101EA000D51FEC17FD0761F480819181840F951F88
:101EB0000296E90199838883828193819B838A8337
:101EC000E0E0F0E012968D919C911397009719F045
:101ED000FD01DC01F7CF8D919C9111979D012E5F43
:101EE0003F4F820F931F20912A0530912B05281711
:101EF000390769F4309729F410922D0510922C05BA
:101F000002C013821282B0932B05A0932A05DF91A1
:101F1000CF910895FC0188279927E89421912032D8
:101F2000E9F3293010F02E30C8F32B3241F02D3276
:101F300039F4689404C00E941D10820F911D2191F4
:101F400020532A30C0F31EF4909581959F4F089539
:101F500046EF52E00E94F60F0895FC01819186172A
:101F600021F08823D9F7992708953197CF01089553
:101F7000FB01DC0101900D920020E1F70895FB01C7
:101F8000DC014150504030F08D910190801919F4DE
:101F90000020B9F7881B990B0895FB01DC01415023
:101FA000504048F001900D920020C9F701C01D92E9
:101FB00041505040E0F70895FB0151915523A9F09D
:101FC000BF01DC014D9145174111E1F759F4CD01F5
:101FD0000190002049F04D9140154111C9F3FB01DA
:101FE0004111EFCF81E090E001970895FA01A191AE
:101FF000B081009719F41097E1F0CD01DC01CD011B
:102000000D90002011F4C00113C0FB012191222387
:1020100019F02015D9F7F3CFFB012191201519F400
:102020001E92119606C02223C1F70D900020A1F741
:10203000D001FA01A193B08308957AE0979F902D83
:10204000879F802D910D11240895AEE0B0E0EBE262
:10205000F0E10C9416130D891E898F89988D26E066
:102060002C831A83098397FF02C080E090E80197D0
:102070009E838D83AE01455E5F4F698D7A8DCE0163
:1020800001960E9477104D815E8157FD0AC02F8115
:102090003885421753070CF49A01F801E20FF31F39
:1020A00010822E96E4E00C943213AEE0B0E0EBE543
:1020B000F0E10C9416130D891E8986E08C831A8337
:1020C00009838FEF9FE79E838D83AE01475E5F4F4D
:1020D0006F89788DCE0101960E947710EF81F88587
:1020E000E00FF11F10822E96E4E00C943213ABE067
:1020F000B0E0EDE7F0E10C9408136C017B018A017C
:10210000FC0117821682838181FFCCC1CE0101962A
:102110003C01F6019381F70193FD859193FF819135
:102120007F01882309F4BAC1853239F493FD859182
:1021300093FF81917F01853229F4B60190E00E94DE
:102140006E12E7CF912C212C312CFFE1F315D8F042
:102150008B3279F038F4803279F08332A1F4232D78
:1021600020611DC08D3261F0803369F4232D216020
:1021700016C0832D8260382EE32DE4603E2E2AC0E7
:10218000F32DF8601DC037FC2DC020ED280F2A303C
:1021900040F08E32B9F436FC81C1232D2064322EFA
:1021A00019C036FE06C08AE0989E200D1124922E9A
:1021B00011C0EAE02E9E200D1124222EF32DF06294
:1021C0003F2E08C08C3621F4832D8068382E02C043
:1021D000883641F4F70193FD859193FF81917F014A
:1021E0008111B3CF982F9F7D9554933028F40C5FC5
:1021F0001F4F9FE399830DC0833631F0833771F011
:10220000833509F059C021C0F801808189830E5FB0
:102210001F4F88248394912C530113C02801F2E0AE
:102220004F0E511CF801A080B18036FE03C0692D0D
:1022300070E002C06FEF7FEFC5010E9463124C0196
:102240008201F32DFF773F2E16C0280122E0420EB7
:10225000511CF801A080B18036FE03C0692D70E0EA
:1022600002C06FEF7FEFC5010E9458124C01F32DA1
:10227000F0683F2E820133FC1BC0822D90E088164F
:102280009906B0F4B60180E290E00E946E122A94A2
:10229000F4CFF50137FC859137FE81915F01B601DE
:1022A00090E00E946E1221102A9421E0821A910877
:1022B0008114910471F7E8C0843611F0893641F534
:1022C000F80137FE07C060817181828193810C5FC4
:1022D0001F4F08C060817181072E000C880B990B7D
:1022E0000E5F1F4FF32DFF763F2E97FF09C090958D
:1022F0008095709561957F4F8F4F9F4FF0683F2E6F
:102300002AE030E0A3010E94AA12882E861845C058
:10231000853731F4232D2F7EB22E2AE030E025C000
:10232000932D997FB92E8F36C1F018F4883579F046
:10233000B5C0803719F0883721F0B0C0E92FE061CF
:10234000BE2EB4FE0DC0FB2DF460BF2E09C034FEBE
:102350000AC0292F2660B22E06C028E030E005C052
:1023600020E130E002C020E132E0F801B7FE07C012
:1023700060817181828193810C5F1F4F06C06081F3
:10238000718180E090E00E5F1F4FA3010E94AA12AE
:10239000882E8618FB2DFF773F2E36FE0DC0232D8D
:1023A0002E7FA22E891458F434FE0BC032FC09C0D3
:1023B000832D8E7EA82E05C0B82CA32C03C0B82C6C
:1023C00001C0B92CA4FE0FC0FE01E80DF11D8081F3
:1023D000803321F49A2D997EA92E09C0A2FE06C051
:1023E000B394B39404C08A2D867809F0B394A3FC07
:1023F00011C0A0FE06C0B21488F4280C922C9B18C1
:102400000EC0B21460F4B60180E290E00E946E1239
:10241000B394F7CFB21418F42B1802C0982C212CC7
:10242000A4FE10C0B60180E390E00E946E12A2FEEE
:1024300017C0A1FC03C088E790E002C088E590E0E7
:10244000B6010CC08A2D867859F0A1FE02C08BE23D
:1024500001C080E2A7FC8DE2B60190E00E946E12FE
:10246000891438F4B60180E390E00E946E129A94C9
:10247000F7CF8A94F301E80DF11D8081B60190E059
:102480000E946E128110F5CF222009F442CEB601CF
:1024900080E290E00E946E122A94F6CFF6018681C7
:1024A000978102C08FEF9FEF2B96E2E10C942413EB
:1024B000FC010590615070400110D8F7809590950F
:1024C0008E0F9F1F0895FC01615070400190011014
:1024D000D8F7809590958E0F9F1F08950F931F93A7
:1024E000CF93DF93FB01238121FD03C08FEF9FEF8B
:1024F0002CC022FF16C046815781248135814217A6
:10250000530744F4A081B1819D012F5F3F4F318378
:1025100020838C93268137812F5F3F4F378326831B
:1025200014C08B01EC01FB010084F185E02D0995BD
:10253000892BE1F6D80116968D919C9117970196FB
:1025400017969C938E931697CE01DF91CF911F9192
:102550000F910895FA01AA27283051F1203181F115
:10256000E8946F936E7F6E5F7F4F8F4F9F4FAF4F9B
:10257000B1E03ED0B4E03CD0670F781F891F9A1FAE
:10258000A11D680F791F8A1F911DA11D6A0F711D62
:10259000811D911DA11D20D009F468943F912AE06E
:1025A000269F11243019305D3193DEF6CF01089556
:1025B000462F4770405D4193B3E00FD0C9F7F6CF87
:1025C000462F4F70405D4A3318F0495D31FD40524F
:1025D000419302D0A9F7EACFB4E0A69597958795E5
:1025E00077956795BA95C9F70097610571050895C4
:1025F0009B01AC010A2E0694579547953795279570
:10260000BA95C9F7620F731F841F951FA01D089507
:102610002F923F924F925F926F927F928F929F92F2
:10262000AF92BF92CF92DF92EF92FF920F931F93E0
:10263000CF93DF93CDB7DEB7CA1BDB0B0FB6F89491
:10264000DEBF0FBECDBF09942A88398848885F84D1
:102650006E847D848C849B84AA84B984C884DF8042
:10266000EE80FD800C811B81AA81B981CE0FD11D26
:102670000FB6F894DEBF0FBECDBFED010895F894FC
:02268000FFCF8A
:1026820000002E05200048024F02000085025B0276
:10269200650200003A03700278020000080281021B
:1026A200890200000201C602CC0200009C06E2027E
:1026B200E7020000BB062C003D3E204E6F746869A5
:1026C2006E6720746F20657865637574696F6E0A32
:1026D200003D3E2041542B54494D453D686F757273
:1026E2002C6D696E7574652C7365636F6E640A0078
:1026F2003D3E204F4B0A003D3E2025643A25643A78
:1027020025640A003D3E204572726F7220666F7228
:102712006D61740A003D3E2041542B444154453DB5
:10272200646174652C6D6F6E74682C796561720AD0
:10273200003D3E2025642F25642F25640A003D3E7E
:102742002041542B4C45443D6C6564206E616D659F
:102752002C7374617475730A006C656431006F6E5A
:10276200006F6666006C656432003D3E2057726FF2
:102772006E6720706172616D657465720A003D3E1C
:102782002041542B53454E534F523D73656E736F28
:1027920072206E616D650A0074656D70003D3E20A9
:1027A20074656D70203D202564206F430A003D3E14
:1027B2002041542B53454E534F523D73656E736FF8
:1027C200725F6E616D650A0041542B4C45440043B3
:1027D2006F6E74726F6C206C65640041542B5345AC
:1027E2004E534F52004765742073656E736F7200CB
:1027F20041542B444154450053657420646174650F
:102802000041542B54494D45005365742074696D41
:1028120065003230001B5B324A001B5B48000D0A28
:1028220025733A2025730D0A000D0A4572726F72E4
:102832002D3E257320636D74206E6F7420666F7554
:102842006E642E0D0A00636C65617200436C6561F3
:1028520072207465726D696E616C20736372656556
:102862006E0068656C700053686F777320636F6DDC
:062872006D616E6473004D
:00000001FF
